S016000054726166666963436F6E74726F6C2E737265636E
S11300000C949F000C94C7000C94C7000C94C70078
S11300100C94C7000C94C7000C94C7000C94C70040
S11300200C94C7000C94E3010C940F050C94410547
S11300300C94C7000C94C7000C94C7000C94C70020
S11300400C94E2090C94C7000C9402090C94340932
S11300500C94C7000C94C7000C94C7000C94C70000
S11300600C94C7000C94C7000C94C7000C94C700F0
S11300700C94C7000C94C7000C94C7000C94C700E0
S11300800C94C7000C94C7000C94C7000C94C700D0
S11300900C94C7000C94C7000C94C7000C94C700C0
S11300A00C94C7000C94C7000C94C7000C94C700B0
S11300B00C94C700636F6D6D3A20756E6465666954
S11300C06E656420636F6D6D616E640A00636F6DAD
S11300D06D3A2025730A00636F6D6D3A2062756670
S11300E0666572206F766572666C6F770A00546578
S11300F0737420426F6172642025640A0001020453
S11301000810204080010204081020010204081095
S1130110200404040404040404020202020202038C
S1130120030303030300000000250028002B000044
S1130130000000240027002A0000A90764091124F4
S11301401FBECFEFD8E0DEBFCDBF11E0A0E0B1E02D
S1130150EAE7FEE102C005900D92A632B107D9F795
S113016023E0A6E2B1E001C01D92A534B207E1F795
S113017010E0CFE9D0E004C02197FE010E94DF0A1D
S1130180CD39D107C9F70E9492090C943B0F0C9406
S11301900000FC018CED95E0938B828B88EC90E061
S11301A0958B848B80ED97E0978B868B0895CF9306
S11301B0DF93CDB7DEB760970FB6F894DEBF0FBEFE
S11301C0CDBFCB01E4E096958795EA95E1F7262F1C
S11301D02F702230D0F03EEF320F3230C8F03CEFB7
S11301E0320F3230C0F03AEF320F3230B8F038EF1D
S11301F0320F3230B0F036EF320F3230A8F02C50DC
S11302002230A8F426E030E014C020E030E011C031
S113021021E030E00EC022E030E00BC023E030E00B
S113022008C024E030E005C025E030E002C027E04B
S113023030E0992753E0880F991F5A95E1F7820F10
S1130240931F22EB2983282F2F772A83880F892F46
S1130250881F990B9195411180618B83697061307E
S113026011F0693019F48B8180628B838B818064F7
S11302708B83BE016F5F7F4F86E291E00E94EB03A8
S113028060960FB6F894DEBF0FBECDBFDF91CF915D
S1130290089541E060E070E00C94D700615071096A
S11302A019F0673C710521F4411102C00C94490115
S11302B00895DF92EF92FF920F931F93CF93DF93F2
S11302C0CDB7DEB760970FB6F894DEBF0FBECDBFD3
S11302D08C0197EEF92E2EE0E22E37E4D32E86E23F
S11302E091E00E94A703882309F44EC086E291E0BE
S11302F00E94B403FC01D8018D939C93892BB9F11E
S113030081814281642F6F70B0E86B9FB00111242A
S1130310682B9081923B19F09B3B91F0E0CF660FE4
S1130320771F45FD03C081E090E002C082E090E0C9
S113033042954170680F791FC8010E944E01CFCFCA
S1130340833069F6F982EA828B831C821D821E82C5
S11303501F82D88619861A861B861C861D86BE01B6
S11303606F5F7F4F86E291E00E94EB03B8CF80E09D
S113037090E0D801ED91FC91E80FF91F10820196ED
S113038080319105B1F7ABCF60960FB6F894DEBF1C
S11303900FBECDBFDF91CF911F910F91FF90EF90D2
S11303A0DF9008950895FC01118210821282E1EB1E
S11303B0F0E0808182608083E0E7F0E0808181600A
S11303C08083789408951F920F920FB60F92112490
S11303D08F939F93809170008E7F8093700083E24F
S11303E08093B2008091560290915702833A91050E
S11303F040F081E080935802109257021092560206
S113040005C0019690935702809356028091700024
S11304108160809370009F918F910F900FBE0F9019
S11304201F901895FC01EF5BFF4F108231971082EB
S11304300895EF92FF920F931F93CF93DF93CDB75D
S1130440DEB79E01235F3F4F4B855C8560E070E023
S113045080E090E00E943E0C01967C010E94E50A37
S11304608C01009781F09E01235F3F4F4B855C8593
S1130470B7010E943E0CB8018BE992E00E94E009AA
S1130480C8010E947D0BDF91CF911F910F91FF90C6
S1130490EF900895FC019C01205C3F4F1192E217FC
S11304A0F307E1F71082FC01EF5BFF4F1082089520
S11304B0CF93DF93FB0101900020E9F73197E61B0E
S11304C0F70BDC01A05CBF4F2C9130E02E173F07E7
S11304D058F1FC01EF5BFF4FC08130E0432F50E047
S11304E0DB010D900020E9F71197A61BB70B2081C3
S11304F04A175B0780F4DC01A20FB11D460F571F9A
S1130500DC91DA014C91D41711F0C0830DC03F5F28
S11305102F5F2083E3CFDC01A20FB11D8C918032C9
S113052029F42F5F208302C080E001C081E0DF91C5
S1130530CF910895CF92DF92EF92FF920F931F9382
S1130540CF93DF93CDB7DEB760970FB6F894DEBFD5
S11305500FBECDBFDC01BE016F5F7F4F80E1FB01A9
S113056011928A95E9F720E08D010F5B1F4FFD0181
S113057001900020E9F731976F01CA1ADB0A422F74
S113058050E04C155D05A8F4F80190817D01E90E59
S1130590F11CF7018081382F3F7D11F42C2D04C00C
S11305A0FB01E40FF51F80832F5F9F5FF8019083A9
S11305B0DECF8981882321F0CB010E94060C02C082
S11305C08FEF9FEF60960FB6F894DEBF0FBECDBFDE
S11305D0DF91CF911F910F91FF90EF90DF90CF901B
S11305E00895CF93DF93D82FC92F66E071E00E945E
S11305F05802882329F08D2F9C2F0E949A0214C040
S11306006CE071E08D2F9C2F0E9458028111F3CF72
S113061084EB90E09F938F93CF93DF930E94190212
S11306200F900F900F900F908D2F9C2FDF91CF91F3
S11306300C944A020F931F93CF93DF93EC018BE941
S113064092E00E94B507181619060CF042C08BE917
S113065092E00E94CF078D30E1F18A3019F18E01CA
S1130660005C1F4FF8019081FE01E90FF11D8083AA
S113067081E0890FF80180838F3379F487ED90E06E
S11306809F938F93DF93CF930E941902CE010E9410
S11306904A020F900F900F900F90F80180818F7392
S11306A0808317C0DF93CF938DEC90E09F938F935B
S11306B0DF93CF930E9419020F900F900F900F9029
S11306C00F900F90CE01DF91CF911F910F910C9459
S11306D0F102DF91CF911F910F910895CF93C62F0F
S11306E061E08C2F0E94810A6C2F70E0FB01E350C3
S11306F0FF4F2491FB01EF5EFE4FE491F0E0EE0F1B
S1130700FF1FEB5DFE4F4591549160E091E081E065
S1130710921741F06F5F982F062E01C0990F0A942B
S1130720EAF7F6CFCA01CF910C9408051F93CF9333
S1130730DF93EC01162F0E94EE03612FCE010E947D
S11307406E03CE01DF91CF911F910C949006DC01D2
S1130750A650BF4FFC01E550FF4F81E02C919081E2
S1130760291301C080E008950C94F703CF92DF921F
S1130770FF920F931F93CF93DF93EC016B01142F20
S113078009E1FF24F394612FC6010E94B906833066
S1130790C9F0813011F4F12CF6CF8230A0F382300D
S11307A011F4F110EECF1B3108F01150015049F74C
S11307B0FE01EB5FFE4F80819181019691838083DE
S11307C086E001C083E0DF91CF911F910F91FF90EC
S11307D0DF90CF9008954EE20C94B60329E031E007
S11307E0FC01A901119241505040E1F708952F9264
S11307F03F924F925F926F927F928F929F92AF92AD
S1130800BF92CF92DF92EF92FF920F931F93CF93F9
S1130810DF9300D000D0CDB7DEB79C838B837C01FF
S11308208BEFE80EF11C6B807C809AEF690E711CD3
S11308300B811C8104501F4FEB81FC81E350FF4F5F
S11308406F018B819C8182509F4F4C018AEF282E2F
S1130850AB80BC8091E0A90EB91EEB81FC81E15014
S1130860FF4FFA83E983F7018081F30190818917AF
S113087009F49DC0EB81FC81E80FF11D308037FE47
S11308801EC0F8019081891739F0F501208131816A
S11308902F5F3F4F31832083F80180838FEFF60170
S11308A08083832D8076803621F082958F708E5FD1
S11308B001C080E0F4018083811106C042C0F401CC
S11308C0808181113EC03082F8012081F4013081A1
S11308D0822F90E0830F911D8B3F910594F1422C60
S11308E0421AF894F3014081F8018081841708F0DA
S11308F061C0F42FF81B8F2FF30180837894F801E3
S11309008081481708F059C0512C50E06B817C81DC
S1130910CB01840D951D0E94240CF80180816B810C
S11309207C81680F711DA2018B819C810E94240C23
S1130930F7018081F8019081891BF7018083F80118
S11309401082F70180818F5F8083F8019081282FC6
S1130950291B8A3F10F0F7011082F40180812817C7
S113096029F0F6018081832580837DCFF601808183
S113097038120CC02B813C81290F311DE981FA8189
S11309808081918101969183808308C0F5018081E3
S1130990918101969183808320E030E0F70180818A
S11309A0F801808321153105E1F2C9010DC080E011
S11309B090E00AC0842D840F9FCF481B50E06B81C8
S11309C07C81680F711DB0CF0F900F900F900F9026
S11309D0DF91CF911F910F91FF90EF90DF90CF9017
S11309E0BF90AF909F908F907F906F905F904F904B
S11309F03F902F900895FC0180818076803611F419
S1130A00818108958081807682958F708E5F0895AC
S1130A10909331028093300260932F0208951F92C5
S1130A200F920FB60F9211248F939F93EF93FF931E
S1130A30EFE6F0E080818F7D808380918600909145
S1130A40870080539D4F90933A028093390280919E
S1130A50390290913A029093890080938800B19A68
S1130A6080818260808384E080933D0210923C0206
S1130A70FF91EF919F918F910F900FBE0F901F9058
S1130A8018951F920F920FB60F9211242F933F9334
S1130A904F938F939F93AF93BF93EF93FF93809163
S1130AA0390290913A0280529E4F90933A02809379
S1130AB039028091390290913A029093890080938F
S1130AC0880080913C028F5F80933C0280913D02BC
S1130AD08430E9F580913C02893078F480913B02BE
S1130AE090E09595879580933B02189B0BC180916C
S1130AF03B02806880933B0205C1B59A80916F00E8
S1130B00806280936F008091370290913802189927
S1130B1009C0FC01EF5FFE4F8081918101969183B2
S1130B20808310C040913B02FC01E650FF4F3081AE
S1130B3021E0230F2083DC01A30FB11D4C932A3F36
S1130B4008F0108210923C0281E080933D02809173
S1130B503D02833009F080C0E0913002F09131020F
S1130B60808120912F0233B190E0022E02C095952E
S1130B7087950A94E2F7832780FD04C010923C0213
S1130B8082E068C080913C028930F0F480913B029D
S1130B90308180FF09C081E090E001C0880F2A9570
S1130BA0EAF78095832307C081E090E001C0880FB5
S1130BB02A95EAF7832B808380913B0290E09595F8
S1130BC0879580933B0248C080913C02893059F458
S1130BD0308181E090E001C0880F2A95EAF7809582
S1130BE08323808339C0809134028F5F80933402E1
S1130BF090913302891748F510923C02A091350276
S1130C00B091360280913402A80FB11D8C9180936B
S1130C103B02308181E090E001C0880F2A95EAF719
S1130C20832B808380918400909185008A589E4F05
S1130C3090933A02809339028091390290913A025A
S1130C40909389008093880007C081E080933202EA
S1130C5010923C0280933D0280913D028230D1F596
S1130C6080913C02811111C0E0913002F091310277
S1130C70208181E090E000902F0202C0880F991F2C
S1130C800A94E2F7822B808325C080913C028F3046
S1130C9008F1E0913002F0913102208181E090E08E
S1130CA000902F0202C0880F991F0A94E2F78095E2
S1130CB08223808310923C0281E080933D02E09184
S1130CC03702F0913802E95FFE4F808191810196ED
S1130CD09183808380913D028130A1F480913C0214
S1130CE0811105C0B59A80916F00806209C080911E
S1130CF03C02883338F010923D0280916F008D7F62
S1130D0080936F00FF91EF91BF91AF919F918F916D
S1130D104F913F912F910F900FBE0F901F901895F8
S1130D2090933802809337022098E0913002F0913A
S1130D303102208181E090E000902F0202C0880FF0
S1130D40991F0A94E2F78095822380831092800091
S1130D50E1E8F0E081E0808310923D02B59AAFE6CD
S1130D60B0E08C9180628C938081887F81608083E5
S1130D7008951F93CF93DF93EC01162F0E94FB0479
S1130D8080933302809133028150109234029FEF9A
S1130D9020913402281768F420913402FE01E20FF6
S1130DA0F11D20819227209134022F5F2093340279
S1130DB0EFCFFE01E80FF11D9083F89480913D027E
S1130DC0813079F480913C02612F193308F068E393
S1130DD0861738F010923D0280916F008D7F8093CA
S1130DE06F00789480913D02813039F490913C02F7
S1130DF0943108F06CC080E06AC080913D0281119A
S1130E0063C0F89480916F008F7D80936F00B59BD1
S1130E1007C080916F00806280936F00789454C003
S1130E20E0913002F0913102208181E090E0009065
S1130E302F0202C0880F991F0A94E2F7822B808345
S1130E4080918400909185008A589E4F90933A0235
S1130E50809339028091390290913A0290938900EB
S1130E60809388007894D0933602C0933502109210
S1130E70340210923202888180933B0283E0809393
S1130E803D0210923C02B19A80916F00826080937F
S1130E906F0080913D028330E1F380913202882318
S1130EA069F0E0913702F0913802ED5FFE4F8081E6
S1130EB0918101969183808383E009C080913D02F2
S1130EC0823021F085E003C082E001C084E0DF913C
S1130ED0CF911F91089526E040E855E260E070E06C
S1130EE08BE992E00E94A20869E086E291E00E9408
S1130EF096031F921F928EEE90E09F938F9389E545
S1130F0092E09F938F930E9419020F900F900F907D
S1130F100F900F900F908EE392E00C94490189E5B5
S1130F2092E00E941A038EE392E00E94590180919C
S1130F305802882321F00E94D201109258022FEF08
S1130F4080E792E0215080409040E1F700C000002B
S1130F50089589E592E00E94120286E592E00E94DB
S1130F60D3018EE392E00C94C900FC01918D228D93
S1130F70892F90E0805C9F4F821B91098F73992782
S1130F800895FC01918D828D981731F0828DE80FC0
S1130F90F11D858D90E008958FEF9FEF0895FC017A
S1130FA0918D828D981761F0828DDF01A80FB11D9C
S1130FB05D968C91928D9F5F9F73928F90E00895C0
S1130FC08FEF9FEF0895FC01538D448D252F30E062
S1130FD0842F90E0821B930B541710F0CF96089542
S1130FE0019708958AE599E0892B41F080E090E02B
S1130FF0892B21F00E945A0981110DC080E090E0F4
S1131000892B71F080E090E0892B51F00E94000060
S1131010811104C008950E940000F0CF0C940000D8
S11310200895FC01848DDF01A80FB11DA35ABF4FA1
S11310302C91848D90E001968F739927848FA689D3
S1131040B7892C93A089B1898C91837080648C9327
S1131050938D848D981306C00288F389E02D8081D6
S11310608F7D80830895EF92FF920F931F93CF9308
S1131070DF93EC0181E0888F9B8D8C8D981305C0E4
S1131080E889F989808185FD26C0F62E0B8D10E054
S11310900F5F1F4F0F731127E02E8C8DE8120CC0C9
S11310A00FB607FCFACFE889F989808185FFF5CF6F
S11310B0CE010E941108F1CF8B8DFE01E80FF11DC6
S11310C0E35AFF4FF0829FB7F8940B8FEA89FB89AC
S11310D0808180620AC09FB7F894EE89FF8960839B
S11310E0E889F98980818370806480839FBF81E06F
S11310F090E0DF91CF911F910F91FF90EF900895B1
S1131100CF93DF93EC01888D8823C9F0EA89FB89AA
S1131110808185FD05C0A889B9898C9186FD0FC0A1
S11311200FB607FCF5CF808185FFF2CFA889B98976
S11311308C9185FFEDCFCE010E941108E7CFDF919E
S1131140CF910895CF92DF92EF92FF921F93CF93A6
S1131150DF93EC016A017B01122F60E874E88EE1F1
S113116090E0A70196010E94BD0ADA01C901019726
S1131170A109B109B695A795979587959C01E8892A
S1131180F98982E08083211580E13807A8F0E88995
S1131190F989108260E472E48FE090E0A70196017F
S11311A00E94BD0ADA01C9010197A109B109B695E6
S11311B0A795979587959C01EC85FD853083EE85F1
S11311C0FF852083188EEC89FD891083EA89FB89C9
S11311D0808180618083EA89FB8980818860808343
S11311E0EA89FB89808180688083EA89FB89808120
S11311F08F7D8083DF91CF911F91FF90EF90DF90DF
S1131200CF9008951F920F920FB60F9211242F932F
S11312108F939F93EF93FF93E091AB02F091AC0215
S11312208081E091B102F091B20282FD12C09081FE
S11312308091B4028F5F8F732091B502821751F0B1
S1131240E091B402F0E0E556FD4F958F8093B4022F
S113125001C08081FF91EF919F918F912F910F9009
S11312600FBE0F901F9018951F920F920FB60F92FA
S113127011242F933F934F935F936F937F938F9397
S11312809F93AF93BF93EF93FF938BE992E00E94F8
S11312901108FF91EF91BF91AF919F918F917F9131
S11312A06F915F914F913F912F910F900FBE0F90CF
S11312B01F9018958BE992E00E94B50721E0892BD5
S11312C009F420E0822F0895EBE9F2E01382128200
S11312D088EE93E0A0E0B0E084839583A683B7838F
S11312E087E191E09183808385EC90E09587848702
S11312F084EC90E09787868780EC90E0918B808BDC
S113130081EC90E0938B828B82EC90E0958B848BC4
S113131086EC90E0978B868B118E128E138E148E32
S1131320089508950E942C0A0E9491090E946B0757
S1131330C2EFD7E00E948F072097E1F30E94F207E3
S1131340F9CFCF92DF92EF92FF920F931F93CF9337
S1131350DF936C017A018B01C0E0D0E0CE15DF058C
S113136081F0D8016D918D01D601ED91FC91019030
S1131370F081E02DC6010995892B11F02196EECF5D
S11313807E01C701DF91CF911F910F91FF90EF90E4
S1131390DF90CF9008956115710579F0FB010190FC
S11313A00020E9F73197AF01461B570BDC01ED91A3
S11313B0FC910280F381E02D099480E090E008958F
S11313C00C94CB091F920F920FB60F9211242F93F6
S11313D03F938F939F93AF93BF93809139039091E1
S11313E03A03A0913B03B0913C033091380326E0CB
S11313F0230F2D3720F40296A11DB11D05C029E845
S1131400230F0396A11DB11D209338038093390344
S113141090933A03A0933B03B0933C0380913D0324
S113142090913E03A0913F03B09140030196A11D0A
S1131430B11D80933D0390933E03A0933F03B0936B
S11314404003BF91AF919F918F913F912F910F9046
S11314500FBE0F901F901895789484B5826084BD58
S113146084B5816084BD85B5826085BD85B58160A4
S113147085BDEEE6F0E0808181608083E1E8F0E004
S11314801082808182608083808181608083E0E833
S1131490F0E0808181608083E1EBF0E08081846012
S11314A08083E0EBF0E0808181608083E1E9F0E01B
S11314B0808182608083808181608083E0E9F0E0C4
S11314C0808181608083E1EAF0E0808182608083B2
S11314D0808181608083E0EAF0E0808181608083A4
S11314E0EAE7F0E080818460808380818260808389
S11314F080818E7F80838081806880831092C10088
S11315000895CF93DF9390E0FC01E350FF4F2491C3
S1131510FC01EF5EFE4F8491882361F190E0880F17
S1131520991FFC01E15DFE4FC591D491FC01EB5D77
S1131530FE4FA591B491611109C09FB7F8948881B9
S1131540209582238883EC912E230BC0623061F4B2
S11315509FB7F8948881322F309583238883EC9148
S11315602E2B2C939FBF06C08FB7F894E8812E2BA7
S113157028838FBFDF91CF910895A1E21A2EAA1B71
S1131580BB1BFD010DC0AA1FBB1FEE1FFF1FA2172F
S1131590B307E407F50720F0A21BB30BE40BF50B2C
S11315A0661F771F881F991F1A9469F760957095B5
S11315B0809590959B01AC01BD01CF010895EE0F7C
S11315C0FF1F0590F491E02D09940F931F93CF937F
S11315D0DF938230910510F482E090E0E0914303C0
S11315E0F091440320E030E0A0E0B0E0309719F13E
S11315F0408151810281138148175907C8F084172B
S1131600950769F4109731F012960C93129713967C
S11316101C9327C0009343031093440322C0211555
S1131620310519F04217530718F49A01BD01EF016F
S1131630DF01F801DBCF21153105F9F0281B390B47
S11316402430310580F48A819B816115710521F074
S1131650FB019383828304C09093440380934303E8
S1131660FE01329644C0FE01E20FF31F8193919371
S113167022503109398328833AC0209141033091A3
S11316804203232B41F42091020130910301309352
S1131690420320934103209100013091010121155F
S11316A0310541F42DB73EB7409104015091050135
S11316B0241B350BE0914103F0914203E217F30739
S11316C0A0F42E1B3F0B2817390778F0AC014E5FAE
S11316D05F4F2417350748F04E0F5F1F50934203A6
S11316E0409341038193919302C0E0E0F0E0CF0185
S11316F0DF91CF911F910F910895CF93DF930097BE
S113170009F481C0FC01329713821282A091430331
S1131710B0914403109781F420813181820F931F8B
S113172020914103309142032817390751F5F09372
S11317304203E093410367C0ED0120E030E0CE179F
S1131740DF0740F44A815B819E0141155105F1F0A8
S1131750EA01F5CFD383C28340815181840F951F61
S1131760C817D90759F488819981840F951F029667
S1131770918380838A819B819383828321153105A0
S113178029F4F0934403E09343033DC0E901FB8350
S1131790EA8349915991C40FD51FEC17FD0761F4F1
S11317A080819181840F951F0296E9019983888332
S11317B0828193819B838A83E0E0F0E012968D918D
S11317C09C911397009719F0FD01DC01F7CF8D91DF
S11317D09C9111979D012E5F3F4F820F931F209183
S11317E04103309142032817390769F4309729F4EB
S11317F0109244031092430302C013821282B093E6
S11318004203A0934103DF91CF910895FC018827FF
S11318109927E89421912032E9F3293010F02E30F1
S1131820C8F32B3241F02D3239F4689404C00E947D
S1131830360C820F911D219120532A30C0F31EF4DF
S1131840909581959F4F08956817790768F4FB0177
S1131850DC01E40FF51FA40FB51F02C002900E9225
S113186041505040D8F708950C94560E7AE0979F53
S1131870902D879F802D910D11240895AEE0B0E046
S1131880E4E4FCE00C94120F8C01FA018EE08C83EA
S11318901A83098377FF02C060E070E8CB010197E7
S11318A09E838D83A901BF01CE0101960E946A0C1B
S11318B04D815E8157FD0AC02F8138854217530739
S11318C00CF49A01F801E20FF31F10822E96E4E063
S11318D00C942E0FABE0B0E0E0E7FCE00C94040FB6
S11318E06C017B018A01FC0117821682838181FFCE
S11318F0CCC1CE0101963C01F6019381F70193FD21
S1131900859193FF81917F01882309F4BAC18532BF
S113191039F493FD859193FF81917F01853229F4F8
S1131920B60190E00E946A0EE7CF912C212C312C55
S1131930FFE1F315D8F08B3279F038F4803279F086
S11319408332A1F4232D20611DC08D3261F08033D8
S113195069F4232D216016C0832D8260382EE32D77
S1131960E4603E2E2AC0F32DF8601DC037FC2DC064
S113197020ED280F2A3040F08E32B9F436FC81C1B4
S1131980232D2064322E19C036FE06C08AE0989EAC
S1131990200D1124922E11C0EAE02E9E200D112458
S11319A0222EF32DF0623F2E08C08C3621F4832DB5
S11319B08068382E02C0883641F4F70193FD859182
S11319C093FF81917F018111B3CF982F9F7D95540F
S11319D0933028F40C5F1F4F9FE399830DC0833627
S11319E031F0833771F0833509F059C021C0F80113
S11319F0808189830E5F1F4F88248394912C530127
S1131A0013C02801F2E04F0E511CF801A080B180F0
S1131A1036FE03C0692D70E002C06FEF7FEFC50191
S1131A200E945F0E4C018201F32DFF773F2E16C0FA
S1131A30280122E0420E511CF801A080B18036FE3C
S1131A4003C0692D70E002C06FEF7FEFC5010E94F3
S1131A504B0E4C01F32DF0683F2E820133FC1BC06A
S1131A60822D90E088169906B0F4B60180E290E0E9
S1131A700E946A0E2A94F4CFF50137FC859137FE53
S1131A8081915F01B60190E00E946A0E21102A94B0
S1131A9021E0821A91088114910471F7E8C0843618
S1131AA011F0893641F5F80137FE07C06081718174
S1131AB0828193810C5F1F4F08C060817181072E62
S1131AC0000C880B990B0E5F1F4FF32DFF763F2EF2
S1131AD097FF09C090958095709561957F4F8F4FC2
S1131AE09F4FF0683F2E2AE030E0A3010E94A60E2B
S1131AF0882E861845C0853731F4232D2F7EB22ECB
S1131B002AE030E025C0932D997FB92E8F36C1F09D
S1131B1018F4883579F0B5C0803719F0883721F08A
S1131B20B0C0E92FE061BE2EB4FE0DC0FB2DF46001
S1131B30BF2E09C034FE0AC0292F2660B22E06C06B
S1131B4028E030E005C020E130E002C020E132E0CE
S1131B50F801B7FE07C060817181828193810C5FB7
S1131B601F4F06C06081718180E090E00E5F1F4FBF
S1131B70A3010E94A60E882E8618FB2DFF773F2E08
S1131B8036FE0DC0232D2E7FA22E891458F434FE68
S1131B900BC032FC09C0832D8E7EA82E05C0B82C44
S1131BA0A32C03C0B82C01C0B92CA4FE0FC0FE01A5
S1131BB0E80DF11D8081803321F49A2D997EA92EA0
S1131BC009C0A2FE06C0B394B39404C08A2D8678DB
S1131BD009F0B394A3FC11C0A0FE06C0B21488F4AB
S1131BE0280C922C9B180EC0B21460F4B60180E24B
S1131BF090E00E946A0EB394F7CFB21418F42B1835
S1131C0002C0982C212CA4FE10C0B60180E390E001
S1131C100E946A0EA2FE17C0A1FC03C088E790E0F0
S1131C2002C088E590E0B6010CC08A2D867859F090
S1131C30A1FE02C08BE201C080E2A7FC8DE2B601E6
S1131C4090E00E946A0E891438F4B60180E390E0B3
S1131C500E946A0E9A94F7CF8A94F301E80DF11D5D
S1131C608081B60190E00E946A0E8110F5CF222097
S1131C7009F442CEB60180E290E00E946A0E2A94F2
S1131C80F6CFF6018681978102C08FEF9FEF2B96E6
S1131C90E2E10C94200FFC010590615070400110AA
S1131CA0D8F7809590958E0F9F1F0895FB01DC0156
S1131CB002C001900D9241505040D8F70895FC01A4
S1131CC06150704001900110D8F7809590958E0F67
S1131CD09F1F08950F931F93CF93DF93FB012381DD
S1131CE021FD03C08FEF9FEF2CC022FF16C0468159
S1131CF05781248135814217530744F4A081B1816F
S1131D009D012F5F3F4F318320838C932681378140
S1131D102F5F3F4F3783268314C08B01EC01FB01F7
S1131D200084F185E02D0995892BE1F6D8011696FA
S1131D308D919C911797019617969C938E93169765
S1131D40CE01DF91CF911F910F910895FA01AA2737
S1131D50283051F1203181F1E8946F936E7F6E5FEA
S1131D607F4F8F4F9F4FAF4FB1E03ED0B4E03CD098
S1131D70670F781F891F9A1FA11D680F791F8A1F7B
S1131D80911DA11D6A0F711D811D911DA11D20D0E2
S1131D9009F468943F912AE0269F11243019305D9C
S1131DA03193DEF6CF010895462F4770405D41938D
S1131DB0B3E00FD0C9F7F6CF462F4F70405D4A33DA
S1131DC018F0495D31FD4052419302D0A9F7EACFA2
S1131DD0B4E0A6959795879577956795BA95C9F7D1
S1131DE000976105710508959B01AC010A2E0694C4
S1131DF05795479537952795BA95C9F7620F731F7D
S1131E00841F951FA01D08952F923F924F925F92B9
S1131E106F927F928F929F92AF92BF92CF92DF92F6
S1131E20EF92FF920F931F93CF93DF93CDB7DEB75B
S1131E30CA1BDB0B0FB6F894DEBF0FBECDBF0994EF
S1131E402A88398848885F846E847D848C849B8446
S1131E50AA84B984C884DF80EE80FD800C811B8154
S1131E60AA81B981CE0FD11D0FB6F894DEBF0FBE83
S10D1E70CDBFED010895F894FFCFF3
S1131E7A0000450320006232206F6E006232206F38
S1131E8A666600000000003308A109E3078008B56C
S1091E9A07CF07C1070099
S9030000FC
