S016000054726166666963436F6E74726F6C2E737265636E
S11300000C94BA000C94E2000C94E2000C94E2000C
S11300100C94E2000C94E2000C94E2000C94E200D4
S11300200C94E2000C94FE010C942A050C945C05DB
S11300300C94E2000C94E2000C94E2000C94E200B4
S11300400C94B30C0C94E2000C94D30B0C94050C9C
S11300500C94E2000C94E2000C94E2000C94E20094
S11300600C94E2000C94E2000C94E2000C94E20084
S11300700C94E2000C94E2000C94E2000C94E20074
S11300800C94E2000C94E2000C94E2000C94E20064
S11300900C94E2000C94E2000C94E2000C94E20054
S11300A00C94E2000C94E2000C94E2000C94E20044
S11300B00C94E2008B0D8E0D810D850DAF0DAF0DEF
S11300C0920D960D9C0DA00DAF0DA60DAA0D636F9C
S11300D06D6D3A20756E646566696E656420636F44
S11300E06D6D616E640A00636F6D6D3A2025730A4D
S11300F000636F6D6D3A20627566666572206F7677
S11301006572666C6F770A00636865636B0A0054F6
S113011065737420426F6172642025640A000000D4
S113012000080002010000030407000000000000B2
S1130130000001020408102040800102040810207D
S11301400102040810200404040404040404020248
S1130150020202020303030303030000000025005C
S113016028002B0000000000240027002A00AE070E
S1130170820A350C11241FBECFEFD8E0DEBFCDBFFD
S113018011E0A0E0B1E0E6E3F5E202C005900D92D3
S1130190A833B107D9F723E0A8E3B1E001C01D9269
S11301A0AF3FB207E1F710E0CAEBD0E004C02197FB
S11301B0FE010E943D0EC73BD107C9F70E94630CA4
S11301C00C9499120C940000FC018CED95E0938B37
S11301D0828B88EC90E0958B848B80ED97E0978BF5
S11301E0868B0895CF93DF93CDB7DEB760970FB6B4
S11301F0F894DEBF0FBECDBFCB01E4E096958795A2
S1130200EA95E1F7262F2F702230D0F03EEF320F1F
S11302103230C8F03CEF320F3230C0F03AEF320FD8
S11302203230B8F038EF320F3230B0F036EF320FF0
S11302303230A8F02C502230A8F426E030E014C06C
S113024020E030E011C021E030E00EC022E030E0D8
S11302500BC023E030E008C024E030E005C025E016
S113026030E002C027E030E0992753E0880F991F5F
S11302705A95E1F7820F931F22EB2983282F2F77BA
S11302802A83880F892F881F990B919541118061CA
S11302908B836970613011F0693019F48B8180624D
S11302A08B838B8180648B83BE016F5F7F4F88E378
S11302B091E00E94060460960FB6F894DEBF0FBE6C
S11302C0CDBFDF91CF91089541E060E070E00C94E0
S11302D0F2006150710919F0673C710521F4411174
S11302E002C00C9464010895DF92EF92FF920F9381
S11302F01F93CF93DF93CDB7DEB760970FB6F89413
S1130300DEBF0FBECDBF8C0197EEF92E2EE0E22E9C
S113031037E4D32E88E391E00E94C203882309F4D2
S11303204EC088E391E00E94CF03FC01D8018D9375
S11303309C93892BB9F181814281642F6F70B0E85D
S11303406B9FB0011124682B9081923B19F09B3B69
S113035091F0E0CF660F771F45FD03C081E090E088
S113036002C082E090E042954170680F791FC80195
S11303700E946901CFCF833069F6F982EA828B83C8
S11303801C821D821E821F82D88619861A861B86AD
S11303901C861D86BE016F5F7F4F88E391E00E943B
S11303A00604B8CF80E090E0D801ED91FC91E80F0D
S11303B0F91F1082019680319105B1F7ABCF609699
S11303C00FB6F894DEBF0FBECDBFDF91CF911F9162
S11303D00F91FF90EF90DF9008950895FC01118232
S11303E010821282E1EBF0E0808182608083E0E79A
S11303F0F0E0808181608083789408951F920F9249
S11304000FB60F9211248F939F93809170008E7F6B
S11304108093700083E28093B2008091680290918F
S11304206902833A910540F081E080936A02109258
S113043069021092680205C0019690936902809344
S11304406802809170008160809370009F918F9109
S11304500F900FBE0F901F901895FC01EF5BFF4F9C
S11304601082319710820895EF92FF920F931F9399
S1130470CF93DF93CDB7DEB79E01235F3F4F4B850C
S11304805C8560E070E080E090E00E949C0F019643
S11304907C010E94430E8C01009781F09E01235F32
S11304A03F4F4B855C85B7010E949C0FB80185E5E1
S11304B093E00E94B10CC8010E94DB0EDF91CF9142
S11304C01F910F91FF90EF900895FC019C01205C17
S11304D03F4F1192E217F307E1F71082FC01EF5B43
S11304E0FF4F10820895CF93DF93FB01019000200A
S11304F0E9F73197E61BF70BDC01A05CBF4F2C91A9
S113050030E02E173F0758F1FC01EF5BFF4FC0812D
S113051030E0432F50E0DB010D900020E9F7119704
S1130520A61BB70B20814A175B0780F4DC01A20FDE
S1130530B11D460F571FDC91DA014C91D41711F00D
S1130540C0830DC03F5F2F5F2083E3CFDC01A20F88
S1130550B11D8C91803229F42F5F208302C080E08A
S113056001C081E0DF91CF910895CF92DF92EF92A5
S1130570FF920F931F93CF93DF93CDB7DEB76097AE
S11305800FB6F894DEBF0FBECDBFDC01BE016F5FB6
S11305907F4F80E1FB0111928A95E9F720E08D01FC
S11305A00F5B1F4FFD0101900020E9F731976F01A8
S11305B0CA1ADB0A422F50E04C155D05A8F4F80175
S11305C090817D01E90EF11CF7018081382F3F7D78
S11305D011F42C2D04C0FB01E40FF51F80832F5F61
S11305E09F5FF8019083DECF8981882321F0CB01BE
S11305F00E94640F02C08FEF9FEF60960FB6F894CD
S1130600DEBF0FBECDBFDF91CF911F910F91FF9041
S1130610EF90DF90CF900895CF93DF93D82FC92F19
S113062066E071E00E947302882329F08D2F9C2FCD
S11306300E94B50214C06CE071E08D2F9C2F0E94C3
S113064073028111F3CF8EEC90E09F938F93CF933D
S1130650DF930E9434020F900F900F900F908D2F14
S11306609C2FDF91CF910C9465020F931F93CF932E
S1130670DF93EC0185E593E00E94860A18161906BB
S11306800CF042C085E593E00E94A00A8D30E1F1B0
S11306908A3019F18E01005C1F4FF8019081FE0130
S11306A0E90FF11D808381E0890FF80180838F3386
S11306B079F481EF90E09F938F93DF93CF930E941F
S11306C03402CE010E9465020F900F900F900F909C
S11306D0F80180818F73808317C0DF93CF9387EEF7
S11306E090E09F938F93DF93CF930E9434020F90F7
S11306F00F900F900F900F900F90CE01DF91CF913C
S11307001F910F910C940C03DF91CF911F910F91C6
S11307100895CF93C62F61E08C2F0E94B00D6C2FEB
S113072070E0FB01EE5CFE4F2491FB01EA5BFE4F9F
S1130730E491F0E0EE0FFF1FE65AFE4F459154910D
S113074060E091E081E0921741F06F5F982F062EF0
S113075001C0990F0A94EAF7F6CFCA01CF910C941D
S113076023051F93CF93DF93EC01162F0E940904F6
S1130770612FCE010E948903CE01DF91CF911F9199
S11307800C94AB06DC01A650BF4FFC01E550FF4FB3
S113079081E02C919081291301C080E008950C948C
S11307A01204CF92DF92FF920F931F93CF93DF93A4
S11307B0EC016B01142F09E1FF24F394612FC601AE
S11307C00E94D4068330C9F0813011F4F12CF6CFA5
S11307D08230A0F3823011F4F110EECF1B3108F017
S11307E01150015049F7FE01EB5FFE4F808191816A
S11307F001969183808386E001C083E0DF91CF91ED
S11308001F910F91FF90DF90CF9008954EE20C94CA
S1130810D10329E031E0FC01A9011192415050407B
S1130820E1F708952F923F924F925F926F927F92D9
S11308308F929F92AF92BF92CF92DF92EF92FF92EC
S11308400F931F93CF93DF9300D000D0CDB7DEB7C3
S11308509C838B837C018BEFE80EF11C6B807C8086
S11308609AEF690E711C0B811C8104501F4FEB81A0
S1130870FC81E350FF4F6F018B819C8182509F4F1D
S11308804C018AEF282EAB80BC8091E0A90EB91EE2
S1130890EB81FC81E150FF4FFA83E983F70180810A
S11308A0F3019081891709F49DC0EB81FC81E80F65
S11308B0F11D308037FE1EC0F8019081891739F090
S11308C0F501208131812F5F3F4F31832083F8016F
S11308D080838FEFF6018083832D8076803621F02C
S11308E082958F708E5F01C080E0F4018083811156
S11308F006C042C0F401808181113EC03082F801FB
S11309002081F4013081822F90E0830F911D8B3F71
S1130910910594F1422C421AF894F3014081F801B4
S11309208081841708F061C0F42FF81B8F2FF30126
S113093080837894F8018081481708F059C0512CBD
S113094050E06B817C81CB01840D951D0E94820F48
S1130950F80180816B817C81680F711DA2018B81FC
S11309609C810E94820FF7018081F8019081891B8C
S1130970F7018083F8011082F70180818F5F808303
S1130980F8019081282F291B8A3F10F0F70110826B
S1130990F4018081281729F0F60180818325808362
S11309A07DCFF601808138120CC02B813C81290F48
S11309B0311DE981FA81808191810196918380833F
S11309C008C0F5018081918101969183808320E0A4
S11309D030E0F7018081F801808321153105E1F2CF
S11309E0C9010DC080E090E00AC0842D840F9FCF20
S11309F0481B50E06B817C81680F711DB0CF0F9054
S1130A000F900F900F90DF91CF911F910F91FF9056
S1130A10EF90DF90CF90BF90AF909F908F907F909A
S1130A206F905F904F903F902F900895FC018081CC
S1130A308076803611F48181089580818076829554
S1130A408F708E5F08959093430280934202609367
S1130A50410208951F920F920FB60F9211248F93A3
S1130A609F93EF93FF93EFE6F0E080818F7D808387
S1130A70809186009091870080539D4F90934C0203
S1130A8080934B0280914B0290914C029093890089
S1130A9080938800B19A80818260808384E080930F
S1130AA04F0210924E02FF91EF919F918F910F9000
S1130AB00FBE0F901F9018951F920F920FB60F92B2
S1130AC011242F933F934F938F939F93AF93BF938F
S1130AD0EF93FF9380914B0290914C0280529E4F72
S1130AE090934C0280934B0280914B0290914C0264
S1130AF0909389008093880080914E028F5F809349
S1130B004E0280914F028430E9F580914E02893083
S1130B1078F480914D0290E09595879580934D02ED
S1130B20189B0BC180914D02806880934D0205C1D2
S1130B30B59A80916F00806280936F008091490222
S1130B4090914A02189909C0FC01EF5FFE4F808121
S1130B50918101969183808310C040914D02FC01E4
S1130B60E650FF4F308121E0230F2083DC01A30FE7
S1130B70B11D4C932A3F08F0108210924E0281E07E
S1130B8080934F0280914F02833009F080C0E0913E
S1130B904202F091430280812091410233B190E0FE
S1130BA0022E02C0959587950A94E2F7832780FD6B
S1130BB004C010924E0282E068C080914E028930D7
S1130BC0F0F480914D02308180FF09C081E090E013
S1130BD001C0880F2A95EAF78095832307C081E036
S1130BE090E001C0880F2A95EAF7832B80838091D7
S1130BF04D0290E09595879580934D0248C0809171
S1130C004E02893059F4308181E090E001C0880FB0
S1130C102A95EAF780958323808339C08091460220
S1130C208F5F8093460290914502891748F5109290
S1130C304E02A0914702B091480280914602A80F4B
S1130C40B11D8C9180934D02308181E090E001C010
S1130C50880F2A95EAF7832B8083809184009091F2
S1130C6085008A589E4F90934C0280934B0280914A
S1130C704B0290914C02909389008093880007C0A6
S1130C8081E08093440210924E0280934F0280913F
S1130C904F028230D1F580914E02811111C0E09152
S1130CA04202F0914302208181E090E000904102F1
S1130CB002C0880F991F0A94E2F7822B808325C013
S1130CC080914E028F3008F1E0914202F09143028C
S1130CD0208181E090E00090410202C0880F991FBA
S1130CE00A94E2F780958223808310924E0281E079
S1130CF080934F02E0914902F0914A02E95FFE4F6E
S1130D008081918101969183808380914F0281300B
S1130D10A1F480914E02811105C0B59A80916F00B3
S1130D20806209C080914E02883338F010924F02DD
S1130D3080916F008D7F80936F00FF91EF91BF9141
S1130D40AF919F918F914F913F912F910F900FBE33
S1130D500F901F90189590934A028093490220980F
S1130D60E0914202F0914302208181E090E0009002
S1130D70410202C0880F991F0A94E2F780958223EA
S1130D80808310928000E1E8F0E081E0808310929B
S1130D904F02B59AAFE6B0E08C9180628C9380816B
S1130DA0887F8160808308951F93CF93DF93EC0144
S1130DB0162F0E94160580934502809145028150AA
S1130DC0109246029FEF20914602281768F4209162
S1130DD04602FE01E20FF11D208192272091460276
S1130DE02F5F20934602EFCFFE01E80FF11D9083A1
S1130DF0F89480914F02813079F480914E02612FF2
S1130E00193308F068E3861738F010924F02809186
S1130E106F008D7F80936F00789480914F028130B2
S1130E2039F490914E02943108F06CC080E06AC0AD
S1130E3080914F02811163C0F89480916F008F7D7F
S1130E4080936F00B59B07C080916F008062809390
S1130E506F00789454C0E0914202F09143022081E3
S1130E6081E090E00090410202C0880F991F0A942B
S1130E70E2F7822B808380918400909185008A58C8
S1130E809E4F90934C0280934B0280914B02909121
S1130E904C0290938900809388007894D093480200
S1130EA0C0934702109246021092440288818093B4
S1130EB04D0283E080934F0210924E02B19A8091CA
S1130EC06F00826080936F0080914F028330E1F362
S1130ED080914402882369F0E0914902F0914A022A
S1130EE0ED5FFE4F8081918101969183808383E041
S1130EF009C080914F02823021F085E003C082E076
S1130F0001C084E0DF91CF911F9108958BE692E0B8
S1130F100E94350380E592E00E94740180916A0288
S1130F20882391F088E091E09F938F938BE692E081
S1130F309F938F930E9434020E94ED0110926A02E3
S1130F400F900F900F900F902FEF80E792E02150B9
S1130F5080409040E1F700C0000008958BE692E0E5
S1130F600E942D0288E692E00E94EE0180E592E064
S1130F700C94E4001F93CF93DF93182FEB0160E4EC
S1130F808FEF92E00E94620A612F8FEF92E00E943D
S1130F90070A6D2F8FEF92E00E94070A6C2F8FEFE4
S1130FA092E00E94070A8FEF92E0DF91CF911F91A8
S1130FB00C947F0A26E040E855E260E070E085E5A5
S1130FC093E00E94730B69E088E391E00E94B1030F
S1130FD01F921F928FE091E09F938F938BE692E094
S1130FE09F938F930E94340280E592E00E946401F3
S1130FF060E470E08FEF92E00E94600A6FE971E0B4
S113100080E00E94BA070F900F900F900F900F90FE
S11310100F9060E070E185E00C94BA071092FE0234
S113102081E08093FC021092FB0261E082E10E9465
S1131030EC0D61E083E10E94EC0DE9EBF0E08081CE
S11310408E7F808380818D7F808380E28093B8004F
S113105085E48093BC000895ECEBF0E080818A7B0A
S1131060808360E082E10E94EC0D60E083E10C94F7
S1131070EC0D880F8093BA0008954091AE02262F9C
S113108030E0240F311D21323105DCF42091FE02C1
S11310902430C9F4FC0180E090E0861758F43091C4
S11310A0AE022191DC01A155BD4FA30FB11D2C93BC
S11310B00196F3CF8091AE02680F6093AE0280E098
S11310C0089581E0089582E008959093F202809358
S11310D0F10208959093F4028093F3020895CF935C
S11310E0DF9391E09093F602882361F0C091B800F9
S11310F0D091BA000E942C080E940E08D093BA0026
S1131100C093B800DF91CF9108954F925F926F9290
S11311107F928F929F92AF92BF92CF92DF92EF9283
S1131120FF920F931F93CF93DF93413208F0C6C011
S1131130122FF42ED72EE62ED82F0E94FD0C4B0131
S11311405C01C091FE02CC2311F18091F7029091D1
S1131150F802A091F902B091FA02892B8A2B8B2B09
S113116081F30E94FD0C4090F7025090F8026090C9
S1131170F9027090FA02DC01CB0188199909AA09D5
S1131180BB09481659066A067B06D8F683C082E076
S11311908093FE020093FC028FEF8093AD021092C5
S11311A0D002F092CF029E2DA1EDB2E0EE2DFD2DE6
S11311B08E2F891B8F1518F481918D93F9CF10927E
S11311C0FD029091FD02DD0FD92BD093FD02809199
S11311D0FB02813089F51092FB020E94FD0C6B0129
S11311E07C018091FD028093BB008091F702909175
S11311F0F802A091F902B091FA02892B8A2B8B2B69
S1131200A9F00E94FD0C8090F7029090F802A09043
S1131210F902B090FA02DC01CB018C199D09AE09E8
S1131220BF0988169906AA06BB06A0F18091BC00E6
S113123083FDD7CF85EC01C085EE8093BC000E946E
S1131240FD0C6B017C01112359F18091FE02823067
S113125039F58091F7029091F802A091F902B091CA
S1131260FA02892B8A2B8B2B71F30E94FD0C809040
S1131270F7029090F802A090F902B090FA02DC0113
S1131280CB018C199D09AE09BF0988169906AA06D7
S1131290BB06C8F68091F5020E946F08C5E013C032
S11312A08091AD028F3F79F08091AD02803241F0A0
S11312B08091AD02803331F0C4E005C0C1E003C0C9
S11312C0C2E001C0C3E08C2FDF91CF911F910F9139
S11312D0FF90EF90DF90CF90BF90AF909F908F9052
S11312E07F906F905F904F90089580E090E0089514
S11312F08091330390E020913403821B9109089577
S11313009091340380913303981750F4E92FF0E05F
S1131310EB5CFC4F208130E09F5F9093340302C06C
S11313202FEF3FEFC9010895E09134038091330317
S1131330E81730F4F0E0EB5CFC4F808190E0089516
S11313408FEF9FEF08950895CF93DF93EC01E09121
S11313500B03F0910C033097F1F0909134038091DA
S113136033039817C0F090E0292F30E02617370791
S113137054F4DE01A20FB31F4C91D901AB5CBC4FF6
S11313804C939F5FF1CF1092340360933303CB01EE
S1131390DF91CF910994DF91CF910895E0910D03EE
S11313A0F0910E03309729F010921103109210035C
S11313B009940895CF92DF92EF92FF920F931F93B7
S11313C0CF93DF937C01CB018A0120910F03222369
S11313D089F0EB016B01C40ED51ECC15DD0569F057
S11313E06991D701ED91FC910190F081E02DC70145
S11313F00995F3CF642F0E943D08C801DF91CF9176
S11314001F910F91FF90EF90DF90CF900895CF93AD
S1131410DF931F92CDB7DEB7698320910F03222398
S1131420D1F020911003203240F021E030E0FC01A3
S11314303383228380E090E015C080911103E82F6C
S1131440F0E0EE5EFC4F998190838F5F80931103EF
S11314508093100305C061E0CE0101960E943D080F
S113146081E090E00F90DF91CF910895FC01138209
S1131470128288EE93E0A0E0B0E084839583A68393
S1131480B78387E191E091838083089510923403B8
S11314901092330310921103109210030E940E084D
S11314A08EEC99E00E946A0884EA99E00C9465083D
S11314B0CF93C62F0E94460A8C2FCF910C943908E3
S11314C00C94580A81E080930F03609332031092C6
S11314D011031092100308950F93062F21E04091F9
S11314E0100362E173E0809132030E948508109238
S11314F011031092100310920F030F91089561E0ED
S11315000C946C0A8FEF92E00C94360AFC01918DD6
S1131510228D892F90E0805C9F4F821B91098F73ED
S113152099270895FC01918D828D981731F0828D51
S1131530E80FF11D858D90E008958FEF9FEF0895DA
S1131540FC01918D828D981761F0828DDF01A80FC7
S1131550B11D5D968C91928D9F5F9F73928F90E0E9
S113156008958FEF9FEF0895FC01538D448D252F2F
S113157030E0842F90E0821B930B541710F0CF9629
S11315800895019708958BE29CE0892B41F080E057
S113159090E0892B21F00E942B0C81110DC080E07A
S11315A090E0892B71F080E090E0892B51F00E944B
S11315B00000811104C008950E940000F0CF0C9433
S11315C000000895FC01848DDF01A80FB11DA35A0A
S11315D0BF4F2C91848D90E001968F739927848F4F
S11315E0A689B7892C93A089B1898C918370806472
S11315F08C93938D848D981306C00288F389E02D13
S113160080818F7D80830895EF92FF920F931F93C3
S1131610CF93DF93EC0181E0888F9B8D8C8D9813A1
S113162005C0E889F989808185FD26C0F62E0B8DD9
S113163010E00F5F1F4F0F731127E02E8C8DE812FF
S11316400CC00FB607FCFACFE889F989808185FFC1
S1131650F5CFCE010E94E20AF1CF8B8DFE01E80F97
S1131660F11DE35AFF4FF0829FB7F8940B8FEA897C
S1131670FB89808180620AC09FB7F894EE89FF8954
S11316806083E889F98980818370806480839FBF47
S113169081E090E0DF91CF911F910F91FF90EF9047
S11316A00895CF93DF93EC01888D8823C9F0EA89EC
S11316B0FB89808185FD05C0A889B9898C9186FD47
S11316C00FC00FB607FCF5CF808185FFF2CFA88944
S11316D0B9898C9185FFEDCFCE010E94E20AE7CF54
S11316E0DF91CF910895CF92DF92EF92FF921F93F3
S11316F0CF93DF93EC016A017B01122F60E874E859
S11317008EE190E0A70196010E941B0EDA01C90147
S11317100197A109B109B695A795979587959C015D
S1131720E889F98982E08083211580E13807A8F0EF
S1131730E889F989108260E472E48FE090E0A701FF
S113174096010E941B0EDA01C9010197A109B10992
S1131750B695A795979587959C01EC85FD85308373
S1131760EE85FF852083188EEC89FD891083EA8934
S1131770FB89808180618083EA89FB89808188601C
S11317808083EA89FB89808180688083EA89FB8978
S113179080818F7D8083DF91CF911F91FF90EF90A7
S11317A0DF90CF9008951F920F920FB60F921124DD
S11317B02F938F939F93EF93FF93E0916503F091A1
S11317C066038081E0916B03F0916C0382FD12C08B
S11317D0908180916E038F5F8F7320916F038217C6
S11317E051F0E0916E03F0E0EB5AFC4F958F80933B
S11317F06E0301C08081FF91EF919F918F912F9192
S11318000F900FBE0F901F9018951F920F920FB656
S11318100F9211242F933F934F935F936F937F9372
S11318208F939F93AF93BF93EF93FF9385E593E0DB
S11318300E94E20AFF91EF91BF91AF919F918F9126
S11318407F916F915F914F913F912F910F900FBEB8
S11318500F901F90189585E593E00E94860A21E079
S1131860892B09F420E0822F0895E5E5F3E0138243
S1131870128288EE93E0A0E0B0E084839583A6838F
S1131880B78389E291E09183808385EC90E095872A
S1131890848784EC90E09787868780EC90E0918B36
S11318A0808B81EC90E0938B828B82EC90E0958B23
S11318B0848B86EC90E0978B868B118E128E138E20
S11318C0148E089508950E94220D0E94620C0E94B5
S11318D0DA07C3ECDAE00E9486072097E1F30E945E
S11318E0C30AF9CFCF92DF92EF92FF920F931F9327
S11318F0CF93DF936C017A018B01C0E0D0E0CE1569
S1131900DF0581F0D8016D918D01D601ED91FC9137
S11319100190F081E02DC6010995892B11F02196E3
S1131920EECF7E01C701DF91CF911F910F91FF9000
S1131930EF90DF90CF9008956115710579F0FB0168
S113194001900020E9F73197AF01461B570BDC01EA
S1131950ED91FC910280F381E02D099480E090E008
S113196008950C949C0C1F920F920FB60F921124A1
S11319702F933F938F939F93AF93BF938091F303E0
S11319809091F403A091F503B091F6033091F20322
S113199026E0230F2D3720F40296A11DB11D05C0AA
S11319A029E8230F0396A11DB11D2093F203809310
S11319B0F3039093F403A093F503B093F60380919B
S11319C0F7039091F803A091F903B091FA030196FB
S11319D0A11DB11D8093F7039093F803A093F9031D
S11319E0B093FA03BF91AF919F918F913F912F9143
S11319F00F900FBE0F901F9018953FB7F8948091E9
S1131A00F7039091F803A091F903B091FA0326B576
S1131A10A89B05C02F3F19F00196A11DB11D3FBF22
S1131A20BA2FA92F982F8827820F911DA11DB11DB0
S1131A30BC01CD0143E0660F771F881F991F4A95AB
S1131A40D1F70895789484B5826084BD84B58160AB
S1131A5084BD85B5826085BD85B5816085BDEEE6B2
S1131A60F0E0808181608083E1E8F0E01082808191
S1131A7082608083808181608083E0E8F0E08081FF
S1131A8081608083E1EBF0E0808184608083E0EB1F
S1131A90F0E0808181608083E1E9F0E08081826010
S1131AA08083808181608083E0E9F0E080818160CF
S1131AB08083E1EAF0E080818260808380818160BC
S1131AC08083E0EAF0E0808181608083EAE7F0E0EF
S1131AD080818460808380818260808380818E7F26
S1131AE080838081806880831092C100089590E093
S1131AF0FC013197ED30F10590F5E65AFF4F0C9457
S1131B003D0E809180008F7703C0809180008F7D8F
S1131B1080938000089584B58F7702C084B58F7D4B
S1131B2084BD08958091B0008F7703C08091B00088
S1131B308F7D8093B0000895809190008F7703C0CB
S1131B40809190008F7D8093900008958091A000F3
S1131B508F7703C08091A0008F7D8093A0000895AB
S1131B60CF93DF9390E0FC01EE5CFE4F2491FC01E7
S1131B70EA5BFE4F8491882361F190E0880F991FFE
S1131B80FC01EC59FE4FC591D491FC01E65AFE4F7D
S1131B90A591B491611109C09FB7F89488812095EB
S1131BA082238883EC912E230BC0623061F49FB7AB
S1131BB0F8948881322F309583238883EC912E2BDF
S1131BC02C939FBF06C08FB7F894E8812E2B2883EF
S1131BD08FBFDF91CF9108951F93CF93DF93282F69
S1131BE030E0F901E25EFE4F8491F901EE5CFE4FB4
S1131BF0D491F901EA5BFE4FC491CC23C1F0162FB6
S1131C0081110E94770DEC2FF0E0EE0FFF1FE65AD2
S1131C10FE4FA591B4919FB7F894111104C08C9113
S1131C20D095D82302C0EC91DE2BDC939FBFDF91CB
S1131C30CF911F910895A1E21A2EAA1BBB1BFD018F
S1131C400DC0AA1FBB1FEE1FFF1FA217B307E40797
S1131C50F50720F0A21BB30BE40BF50B661F771FEF
S1131C60881F991F1A9469F76095709580959095CF
S1131C709B01AC01BD01CF010895EE0FFF1F05903C
S1131C80F491E02D09940F931F93CF93DF93823047
S1131C90910510F482E090E0E091FD03F091FE03E1
S1131CA020E030E0A0E0B0E0309719F140815181AC
S1131CB00281138148175907C8F08417950769F4FE
S1131CC0109731F012960C93129713961C9327C019
S1131CD00093FD031093FE0322C02115310519F072
S1131CE04217530718F49A01BD01EF01DF01F8010F
S1131CF0DBCF21153105F9F0281B390B24303105D0
S1131D0080F48A819B816115710521F0FB01938325
S1131D10828304C09093FE038093FD03FE013296F8
S1131D2044C0FE01E20FF31F8193919322503109C5
S1131D30398328833AC02091FB033091FC03232B81
S1131D4041F420910201309103013093FC0320936C
S1131D50FB0320910001309101012115310541F46B
S1131D602DB73EB74091040150910501241B350B5A
S1131D70E091FB03F091FC03E217F307A0F42E1BA0
S1131D803F0B2817390778F0AC014E5F5F4F2417DB
S1131D90350748F04E0F5F1F5093FC034093FB033D
S1131DA08193919302C0E0E0F0E0CF01DF91CF9105
S1131DB01F910F910895CF93DF93009709F481C089
S1131DC0FC01329713821282A091FD03B091FE03AD
S1131DD0109781F420813181820F931F2091FB039E
S1131DE03091FC032817390751F5F093FC03E09375
S1131DF0FB0367C0ED0120E030E0CE17DF0740F4BD
S1131E004A815B819E0141155105F1F0EA01F5CF4C
S1131E10D383C28340815181840F951FC817D9078A
S1131E2059F488819981840F951F02969183808348
S1131E308A819B81938382832115310529F4F09350
S1131E40FE03E093FD033DC0E901FB83EA8349916E
S1131E505991C40FD51FEC17FD0761F4808191815E
S1131E60840F951F0296E901998388838281938167
S1131E709B838A83E0E0F0E012968D919C91139706
S1131E80009719F0FD01DC01F7CF8D919C9111971A
S1131E909D012E5F3F4F820F931F2091FB033091D2
S1131EA0FC032817390769F4309729F41092FE03CC
S1131EB01092FD0302C013821282B093FC03A0931C
S1131EC0FB03DF91CF910895FC0188279927E894BB
S1131ED021912032E9F3293010F02E30C8F32B324F
S1131EE041F02D3239F4689404C00E94940F820F9B
S1131EF0911D219120532A30C0F31EF490958195B1
S1131F009F4F08956817790768F4FB01DC01E40F1B
S1131F10F51FA40FB51F02C002900E92415050400D
S1131F20D8F708950C94B4117AE0979F902D879F69
S1131F30802D910D11240895AEE0B0E0E2EAFFE0B7
S1131F400C9470128C01FA018EE08C831A8309833D
S1131F5077FF02C060E070E8CB0101979E838D8318
S1131F60A901BF01CE0101960E94C80F4D815E8177
S1131F7057FD0AC02F813885421753070CF49A0184
S1131F80F801E20FF31F10822E96E4E00C948C12F9
S1131F90ABE0B0E0EEECFFE00C9462126C017B016C
S1131FA08A01FC0117821682838181FFCCC1CE0194
S1131FB001963C01F6019381F70193FD859193FF0E
S1131FC081917F01882309F4BAC1853239F493FDE4
S1131FD0859193FF81917F01853229F4B60190E0C8
S1131FE00E94C811E7CF912C212C312CFFE1F3156D
S1131FF0D8F08B3279F038F4803279F08332A1F45E
S1132000232D20611DC08D3261F0803369F4232DAE
S1132010216016C0832D8260382EE32DE4603E2EAD
S11320202AC0F32DF8601DC037FC2DC020ED280F09
S11320302A3040F08E32B9F436FC81C1232D20645D
S1132040322E19C036FE06C08AE0989E200D112457
S1132050922E11C0EAE02E9E200D1124222EF32D83
S1132060F0623F2E08C08C3621F4832D8068382E10
S113207002C0883641F4F70193FD859193FF819165
S11320807F018111B3CF982F9F7D9554933028F40D
S11320900C5F1F4F9FE399830DC0833631F0833764
S11320A071F0833509F059C021C0F801808189831A
S11320B00E5F1F4F88248394912C530113C0280171
S11320C0F2E04F0E511CF801A080B18036FE03C02F
S11320D0692D70E002C06FEF7FEFC5010E94BD1152
S11320E04C018201F32DFF773F2E16C0280122E018
S11320F0420E511CF801A080B18036FE03C0692D48
S113210070E002C06FEF7FEFC5010E94A9114C017E
S1132110F32DF0683F2E820133FC1BC0822D90E02A
S113212088169906B0F4B60180E290E00E94C811C6
S11321302A94F4CFF50137FC859137FE81915F0134
S1132140B60190E00E94C81121102A9421E0821A5D
S113215091088114910471F7E8C0843611F089362E
S113216041F5F80137FE07C0608171818281938156
S11321700C5F1F4F08C060817181072E000C880B13
S1132180990B0E5F1F4FF32DFF763F2E97FF09C06B
S113219090958095709561957F4F8F4F9F4FF06814
S11321A03F2E2AE030E0A3010E940412882E8618F4
S11321B045C0853731F4232D2F7EB22E2AE030E03E
S11321C025C0932D997FB92E8F36C1F018F4883528
S11321D079F0B5C0803719F0883721F0B0C0E92F05
S11321E0E061BE2EB4FE0DC0FB2DF460BF2E09C00D
S11321F034FE0AC0292F2660B22E06C028E030E043
S113220005C020E130E002C020E132E0F801B7FE71
S113221007C060817181828193810C5F1F4F06C06A
S11322206081718180E090E00E5F1F4FA3010E94E6
S11322300412882E8618FB2DFF773F2E36FE0DC024
S1132240232D2E7FA22E891458F434FE0BC032FCA9
S113225009C0832D8E7EA82E05C0B82CA32C03C0E4
S1132260B82C01C0B92CA4FE0FC0FE01E80DF11D6D
S11322708081803321F49A2D997EA92E09C0A2FE73
S113228006C0B394B39404C08A2D867809F0B3943D
S1132290A3FC11C0A0FE06C0B21488F4280C922C32
S11322A09B180EC0B21460F4B60180E290E00E9464
S11322B0C811B394F7CFB21418F42B1802C0982C99
S11322C0212CA4FE10C0B60180E390E00E94C81146
S11322D0A2FE17C0A1FC03C088E790E002C088E515
S11322E090E0B6010CC08A2D867859F0A1FE02C098
S11322F08BE201C080E2A7FC8DE2B60190E00E946F
S1132300C811891438F4B60180E390E00E94C81122
S11323109A94F7CF8A94F301E80DF11D8081B601F8
S113232090E00E94C8118110F5CF222009F442CE1A
S1132330B60180E290E00E94C8112A94F6CFF6011B
S11323408681978102C08FEF9FEF2B96E2E10C9478
S11323507E12FC010590615070400110D8F7809501
S113236090958E0F9F1F0895FB01DC0102C0019020
S11323700D9241505040D8F70895FC0161507040CF
S113238001900110D8F7809590958E0F9F1F0895A6
S11323900F931F93CF93DF93FB01238121FD03C090
S11323A08FEF9FEF2CC022FF16C0468157812481F6
S11323B035814217530744F4A081B1819D012F5FF9
S11323C03F4F318320838C93268137812F5F3F4F8A
S11323D03783268314C08B01EC01FB010084F18553
S11323E0E02D0995892BE1F6D80116968D919C91E3
S11323F01797019617969C938E931697CE01DF91AB
S1132400CF911F910F910895FA01AA27283051F115
S1132410203181F1E8946F936E7F6E5F7F4F8F4F11
S11324209F4FAF4FB1E03ED0B4E03CD0670F781F70
S1132430891F9A1FA11D680F791F8A1F911DA11D55
S11324406A0F711D811D911DA11D20D009F468948E
S11324503F912AE0269F11243019305D3193DEF636
S1132460CF010895462F4770405D4193B3E00FD0EC
S1132470C9F7F6CF462F4F70405D4A3318F0495DD7
S113248031FD4052419302D0A9F7EACFB4E0A695BA
S11324909795879577956795BA95C9F700976105DC
S11324A0710508959B01AC010A2E06945795479532
S11324B037952795BA95C9F7620F731F841F951F27
S11324C0A01D08952F923F924F925F926F927F9238
S11324D08F929F92AF92BF92CF92DF92EF92FF9230
S11324E00F931F93CF93DF93CDB7DEB7CA1BDB0BDC
S11324F00FB6F894DEBF0FBECDBF09942A88398881
S113250048885F846E847D848C849B84AA84B98487
S1132510C884DF80EE80FD800C811B81AA81B98193
S1132520CE0FD11D0FB6F894DEBF0FBECDBFED01A7
S10925300895F894FFCFAA
S11325360000FF0320006232206F6E006232206FBB
S113254666660000000000070ADA097509A309781F
S1132556098009940900000000040B720CB40A51A6
S10B25660B860AA00A920A0088
S9030000FC
