:100000000C94C7000C94EF000C94EF000C94EF00DC
:100010000C94EF000C94EF000C94EF000C94EF00A4
:100020000C94EF000C9487050C94B3080C94E5082D
:100030000C94EF000C94EF000C94EF000C94EF0084
:100040000C9416100C94EF000C94320F0C94640F67
:100050000C94EF000C94EF000C94EF000C94EF0064
:100060000C94EF000C94EF000C94EF000C94EF0054
:100070000C94EF000C94EF000C94EF000C94EF0044
:100080000C94EF000C94EF000C94EF000C94EF0034
:100090000C94EF000C94EF000C94EF000C94EF0024
:1000A0000C94EF000C94EF000C94EF000C94EF0014
:1000B0000C94EF00F710FA10ED10F1101B111B114A
:1000C000FE10021108110C111B1112111611636F91
:1000D0006D6D3A20756E646566696E656420636F48
:1000E0006D6D616E640A00636F6D6D3A2025730A51
:1000F00000636F6D6D3A20627566666572206F767B
:100100006572666C6F770A00636865636B0A004905
:100110006E697469616C697A696E6720494E413213
:1001200031392E2E2E0A005465737420426F61728D
:10013000642025640A00000000080002010000039A
:100140000407000000000000000001020408102065
:100150004080010204081020010204081020040459
:10016000040404040404020202020202030303035F
:10017000030300000000250028002B000000000001
:10018000240027002A00660BE10D940F770B112441
:100190001FBECFEFD8E0DEBFCDBF11E0A0E0B1E0E1
:1001A000E4E2FCE202C005900D92A833B107D9F752
:1001B00024E0A8E3B1E001C01D92A231B207E1F74B
:1001C00010E0C6ECD0E004C02197FE010E94A91106
:1001D000C33CD107C9F70E94C20F0C9405160C94BA
:1001E0000000EF920F93FC01108A118A128A138A81
:1001F0007183608313821282E2865087478303876C
:1002000021870F91EF900895EF92FF920F931F9324
:10021000CF93DF9300D0CDB7DEB7DC0117969C916A
:10022000179718962C91189799832A83ED91FC9132
:100230001197309761F01A96EC90F12C50E08E01F6
:100240000F5F1F4F21E0CF010E94F2013CC01296C8
:10025000ED91FC911397309721F116968C9116979A
:100260001A960C9150E0833039F42E7F29839A83BB
:1002700010E00F5F1F4F0EC0811102C09F7708C0B2
:10028000823011F4906804C0813019F49F77906433
:10029000998310E09E012F5F3F4FCF010E943404ED
:1002A00012C014968D919C911597009759F0042FC8
:1002B00010E09B011A964C91BE016F5F7F4F0E9428
:1002C0009B0101C080E00F900F90DF91CF911F91B3
:1002D0000F91FF90EF900895CF93DF93211102C00B
:1002E000EC012985253018F5FC01408B518B628B80
:1002F000738BE20FF11DDC018E179F0781F0EC017B
:100300003B85311104C01C964C931C9701C0438758
:10031000452F562F672F772711963197EDCFBC01C8
:10032000645F7F4F422FDF91CF910C94040180E0F6
:10033000DF91CF9108950F931F93DC0118968C9154
:100340001897882369F01696ED91FC9117973097CE
:1003500031F019968D919C911A97099501C080E012
:100360001F910F910895FC01608352834183138292
:1003700080E290E0958384830895CF93DF93EC012E
:100380008B81811107C061E0CE010E94DA01982FB4
:10039000882361F0688189819A810E94C10D8981D9
:1003A0009A810E94DE0D91E0811190E0892FDF910A
:1003B000CF9108951F93CF93DF93EC01162F89817E
:1003C0009A810E94AF0D81E08B83112331F0CE0121
:1003D000DF91CF911F910C94BD0181E0DF91CF910E
:1003E0001F9108958F929F92BF92CF92DF92EF92CA
:1003F000FF920F931F93CF93DF93DA01AE0DBF1DD2
:10040000EC01EC81FD81EA17FB07A0F1B22E6A0135
:100410004B01EC01688189819A810E94C10DE11430
:10042000F10479F489819A81DC01ED91FC910280DB
:10043000F381E02DA601B4010995C816D906D1F4BF
:1004400012C00115110571F389819A81DC01ED91CA
:10045000FC910280F381E02DA701B8010995E8160F
:10046000F90641F4DFCF6B2D89819A810E94CB0D73
:1004700091E0811190E0892FDF91CF911F910F9131
:10048000FF90EF90DF90CF90BF909F908F90089556
:10049000FC011182108263831086118612861386F6
:1004A00014861586168617860895FC018081918131
:1004B0000C94D30FCF92DF92EF920F93CF93DF93F1
:1004C000CDB7DEB7A8970FB6F894DEBF0FBECDBF8D
:1004D0006C0180E090E1A0E0B0E0F60184839583B8
:1004E000A683B7838AE090E0A0E0B0E080879187A0
:1004F000A287B38780E090E0A0E0B0E4848795878E
:10050000A687B78760817181EE24E39401E022E041
:1005100045E050E0CE0145960E94F100F60144818D
:1005200055816681778122E0CE0145960E946C015B
:10053000F6016081718122E040E050E0CE01019639
:100540000E94F10022E04FE959E360E070E0CE0143
:1005500001960E946C01F6018283A8960FB6F8946A
:10056000DEBF0FBECDBFDF91CF910F91EF90DF9037
:10057000CF900895EF92FF920F931F93CF93DF9345
:10058000EC017B0188819981892B59F486E090E008
:100590000E94D10F8C01A7016B810E94B3011983C6
:1005A000088361E0888199810E94DA01182F8823ED
:1005B00019F0CE010E945A02812FDF91CF911F9135
:1005C0000F91FF90EF9008956F927F928F929F927C
:1005D000AF92BF92CF92DF92EF92FF920F931F9351
:1005E000CF93DF93EC01FB0188819981892BF1F096
:1005F0004115510509F4BCC080818EBDDB01CA01E3
:10060000019751F011963C9111970DB407FEFDCF63
:100610002EB53EBD2D93F4CF41505109E40FF51F87
:100620000DB407FEFDCF8EB58083A2C088858823D8
:1006300019F080E8882E02C0882483948081882164
:10064000992493948111912C7A018F012C813D8101
:100650004E815F8160E271EA87E090E00E9487113D
:10066000C22EE00EF11EA22EB12C0E151F0509F4AC
:100670007FC0F8016080D82C712CCC2019F0C50106
:100680000E9485108985877FB9F58C858F3FB9F0E9
:10069000962D9D2181E009F480E0891581F0EE8599
:1006A000FF858E89992331F09081892B808399244D
:1006B000939405C09081809589238083912CE8894B
:1006C000F9899081888D892B8083CC2019F0C50110
:1006D0000E9485108D858F3F39F0EA89FB899081D2
:1006E0008F89892309F07D28E889F9899081888D8F
:1006F0008095892380832CC0E889F9899081888D31
:10070000892B8083CC2019F0C5010E9485108C852F
:100710008F3F69F0EE85FF858E89962D9D2119F01A
:100720009081892B03C09081809589238083E889FB
:10073000F9899081888D8095892380838D858F3F6D
:1007400039F0EA89FB8990818F89892309F07D2816
:100750008D858F3F11F0F80170828885811106C068
:10076000DD0CD1108ACF0F5F1F4F7FCFD694F9CF0A
:10077000DF91CF911F910F91FF90EF90DF90CF907D
:10078000BF90AF909F908F907F906F900895CF9380
:10079000DF931F92CDB7DEB7698341E050E0BE0121
:1007A0006F5F7F4F0E94E40289810F90DF91CF91AC
:1007B0000895DC012D913C911197232BF9F01296AD
:1007C000ED91FC9113974081318180913A0188230A
:1007D00099F02FB7F89480913A01813059F48DB394
:1007E000809338019DB380913901809589238DBB19
:1007F0002FBF02C0209338014CBD3DBD0895FC01C0
:1008000080819181892B81F080913A01882361F068
:100810009FB7F89420913A0180913801213019F462
:100820008DBB9FBF08958FBF0895FC0182858F3FC8
:1008300011F00C9458110895CF93DF93EC010E94AE
:10084000D90360E070E0CE01DF91CF910C941504E4
:10085000CF93DF93EC0161E070E00E941504CE01BC
:10086000DF91CF910C94FF038F929F92AF92BF9232
:10087000CF92DF92EF92FF920F931F93CF93DF936C
:100880007C015B016A0149010E941C04E401080D1E
:10089000191DC017D10729F06991C7010E94C7032C
:1008A000F8CFE501CA0CDB1CCC15DD0529F06991F8
:1008B000C7010E94C703F8CFC7010E94280481E046
:1008C000DF91CF911F910F91FF90EF90DF90CF902C
:1008D000BF90AF909F908F900895FC018CED95E0B4
:1008E000938B828B88EC90E0958B848B80ED97E0E6
:1008F000978B868B0895CF93DF93CDB7DEB7609744
:100900000FB6F894DEBF0FBECDBFCB01E4E09695E5
:100910008795EA95E1F7262F2F702230D0F03EEF31
:10092000320F3230C8F03CEF320F3230C0F03AEFC5
:10093000320F3230B8F038EF320F3230B0F036EFDD
:10094000320F3230A8F02C502230A8F426E030E0EC
:1009500014C020E030E011C021E030E00EC022E001
:1009600030E00BC023E030E008C024E030E005C0F8
:1009700025E030E002C027E030E0992753E0880FFF
:10098000991F5A95E1F7820F931F22EB2983282F95
:100990002F772A83880F892F881F990B91954111F2
:1009A00080618B836970613011F0693019F48B813B
:1009B00080628B838B8180648B83BE016F5F7F4FEE
:1009C0008BE391E00E948F0760960FB6F894DEBF2C
:1009D0000FBECDBFDF91CF91089541E060E070E0A0
:1009E0000C947B046150710919F0673C710521F486
:1009F000411102C00C94ED040895DF92EF92FF9232
:100A00000F931F93CF93DF93CDB7DEB760970FB6E9
:100A1000F894DEBF0FBECDBF8C0197EEF92E2EE00D
:100A2000E22E37E4D32E8BE391E00E944B0788231C
:100A300009F44EC08BE391E00E945807FC01D801F5
:100A40008D939C93892BB9F181814281642F6F70C2
:100A5000B0E86B9FB0011124682B9081923B19F094
:100A60009B3B91F0E0CF660F771F45FD03C081E00F
:100A700090E002C082E090E042954170680F791FDB
:100A8000C8010E94F204CFCF833069F6F982EA826E
:100A90008B831C821D821E821F82D88619861A862D
:100AA0001B861C861D86BE016F5F7F4F8BE391E026
:100AB0000E948F07B8CF80E090E0D801ED91FC91C3
:100AC000E80FF91F1082019680319105B1F7ABCF85
:100AD00060960FB6F894DEBF0FBECDBFDF91CF9109
:100AE0001F910F91FF90EF90DF9008950895FC0102
:100AF000118210821282E1EBF0E0808182608083BB
:100B0000E0E7F0E0808181608083789408951F920F
:100B10000F920FB60F9211248F939F9380917000C4
:100B20008E7F8093700083E28093B20080917B027D
:100B300090917C02833A910540F081E080937D02A0
:100B400010927C0210927B0205C0019690937C0269
:100B500080937B02809170008160809370009F91F0
:100B60008F910F900FBE0F901F901895FC01EF5BB7
:100B7000FF4F1082319710820895EF92FF920F93EA
:100B80001F93CF93DF93CDB7DEB79E01235F3F4F17
:100B90004B855C8560E070E080E090E00E94081387
:100BA00001967C010E94AF118C01009781F09E019B
:100BB000235F3F4F4B855C85B7010E940813B80146
:100BC00088E693E00E941410C8010E944712DF914A
:100BD000CF911F910F91FF90EF900895FC019C0120
:100BE000205C3F4F1192E217F307E1F71082FC01FE
:100BF000EF5BFF4F10820895CF93DF93FB010190CD
:100C00000020E9F73197E61BF70BDC01A05CBF4F32
:100C10002C9130E02E173F0758F1FC01EF5BFF4F9E
:100C2000C08130E0432F50E0DB010D900020E9F758
:100C30001197A61BB70B20814A175B0780F4DC01D4
:100C4000A20FB11D460F571FDC91DA014C91D4174A
:100C500011F0C0830DC03F5F2F5F2083E3CFDC0125
:100C6000A20FB11D8C91803229F42F5F208302C026
:100C700080E001C081E0DF91CF910895CF92DF92B3
:100C8000EF92FF920F931F93CF93DF93CDB7DEB711
:100C900060970FB6F894DEBF0FBECDBFDC01BE017A
:100CA0006F5F7F4F80E1FB0111928A95E9F720E0A9
:100CB0008D010F5B1F4FFD0101900020E9F7319777
:100CC0006F01CA1ADB0A422F50E04C155D05A8F4EB
:100CD000F80190817D01E90EF11CF7018081382F28
:100CE0003F7D11F42C2D04C0FB01E40FF51F808320
:100CF0002F5F9F5FF8019083DECF8981882321F0E9
:100D0000CB010E94D01202C08FEF9FEF60960FB60A
:100D1000F894DEBF0FBECDBFDF91CF911F910F9131
:100D2000FF90EF90DF90CF900895CF93DF93D82F6F
:100D3000C92F66E071E00E94FC05882329F08D2F01
:100D40009C2F0E943E0614C06CE071E08D2F9C2FFA
:100D50000E94FC058111F3CF8EEC90E09F938F935E
:100D6000CF93DF930E94BD050F900F900F900F90CF
:100D70008D2F9C2FDF91CF910C94EE050F931F9335
:100D8000CF93DF93EC0188E693E00E94E50D1816FF
:100D900019060CF042C088E693E00E94FF0D8D30EA
:100DA000E1F18A3019F18E01005C1F4FF80190814A
:100DB000FE01E90FF11D808381E0890FF801808336
:100DC0008F3379F481EF90E09F938F93DF93CF93EC
:100DD0000E94BD05CE010E94EE050F900F900F906E
:100DE0000F90F80180818F73808317C0DF93CF93BA
:100DF00087EE90E09F938F93DF93CF930E94BD0582
:100E00000F900F900F900F900F900F90CE01DF91E9
:100E1000CF911F910F910C949506DF91CF911F9167
:100E20000F910895CF93C62F61E08C2F0E941C1163
:100E30006C2F70E0FB01E65BFE4F2491FB01E25A50
:100E4000FE4FE491F0E0EE0FFF1FEE58FE4F45918C
:100E5000549160E091E081E0921741F06F5F982F2C
:100E6000062E01C0990F0A94EAF7F6CFCA01CF9176
:100E70000C94AC081F93CF93DF93EC01162F0E94C4
:100E80009207612FCE010E941207CE01DF91CF9110
:100E90001F910C94340ADC01A650BF4FFC01E550B1
:100EA000FF4F81E02C919081291301C080E00895CB
:100EB0000C949B07CF92DF92FF920F931F93CF93D7
:100EC000DF93EC016B01142F09E1FF24F394612FF0
:100ED000C6010E945D0A8330C9F0813011F4F12C03
:100EE000F6CF8230A0F3823011F4F110EECF1B3137
:100EF00008F01150015049F7FE01EB5FFE4F808171
:100F0000918101969183808386E001C083E0DF9127
:100F1000CF911F910F91FF90DF90CF9008954EE2F7
:100F20000C945A0729E031E0FC01A90111924150CB
:100F30005040E1F708952F923F924F925F926F9247
:100F40007F928F929F92AF92BF92CF92DF92EF9259
:100F5000FF920F931F93CF93DF9300D000D0CDB7B4
:100F6000DEB79C838B837C018BEFE80EF11C6B80DA
:100F70007C809AEF690E711C0B811C8104501F4FFD
:100F8000EB81FC81E350FF4F6F018B819C8182508C
:100F90009F4F4C018AEF282EAB80BC8091E0A90EB8
:100FA000B91EEB81FC81E150FF4FFA83E983F70121
:100FB0008081F3019081891709F49DC0EB81FC8148
:100FC000E80FF11D308037FE1EC0F80190818917AF
:100FD00039F0F501208131812F5F3F4F318320832C
:100FE000F80180838FEFF6018083832D8076803631
:100FF00021F082958F708E5F01C080E0F4018083C4
:10100000811106C042C0F401808181113EC030824E
:10101000F8012081F4013081822F90E0830F911D2F
:101020008B3F910594F1422C421AF894F3014081D0
:10103000F8018081841708F061C0F42FF81B8F2F0E
:10104000F30180837894F8018081481708F059C033
:10105000512C50E06B817C81CB01840D951D0E9449
:10106000EE12F80180816B817C81680F711DA201F5
:101070008B819C810E94EE12F7018081F8019081A2
:10108000891BF7018083F8011082F70180818F5F4F
:101090008083F8019081282F291B8A3F10F0F701E7
:1010A0001082F4018081281729F0F60180818325C0
:1010B00080837DCFF601808138120CC02B813C816A
:1010C000290F311DE981FA818081918101969183F7
:1010D000808308C0F501808191810196918380838E
:1010E00020E030E0F7018081F8018083211531058F
:1010F000E1F2C9010DC080E090E00AC0842D840FA8
:101100009FCF481B50E06B817C81680F711DB0CF71
:101110000F900F900F900F90DF91CF911F910F9133
:10112000FF90EF90DF90CF90BF90AF909F908F9007
:101130007F906F905F904F903F902F900895FC01AB
:1011400080818076803611F4818108958081807657
:1011500082958F708E5F089590934602809345022A
:101160006093440208951F920F920FB60F921124BC
:101170008F939F93EF93FF93EFE6F0E080818F7D55
:101180008083809186009091870080539D4F90933B
:101190004F0280934E0280914E0290914F029093A5
:1011A000890080938800B19A80818260808384E086
:1011B0008093520210925102FF91EF919F918F9173
:1011C0000F900FBE0F901F9018951F920F920FB6A1
:1011D0000F9211242F933F934F938F939F93AF932D
:1011E000BF93EF93FF9380914E0290914F028052F4
:1011F0009E4F90934F0280934E0280914E029091A9
:101200004F029093890080938800809151028F5FF4
:1012100080935102809152028430E9F5809151020D
:10122000893078F48091500290E09595879580936D
:101230005002189B0BC1809150028068809350022D
:1012400005C1B59A80916F00806280936F00809194
:101250004C0290914D02189909C0FC01EF5FFE4FBE
:101260008081918101969183808310C040915002CA
:10127000FC01E650FF4F308121E0230F2083DC0189
:10128000A30FB11D4C932A3F08F010821092510217
:1012900081E08093520280915202833009F080C035
:1012A000E0914502F091460280812091440233B1E1
:1012B00090E0022E02C0959587950A94E2F7832765
:1012C00080FD04C01092510282E068C080915102FA
:1012D0008930F0F480915002308180FF09C081E0B4
:1012E00090E001C0880F2A95EAF78095832307C014
:1012F00081E090E001C0880F2A95EAF7832B808374
:101300008091500290E0959587958093500248C057
:1013100080915102893059F4308181E090E001C020
:10132000880F2A95EAF780958323808339C08091BE
:1013300049028F5F8093490290914802891748F5CE
:1013400010925102A0914A02B0914B028091490241
:10135000A80FB11D8C9180935002308181E090E004
:1013600001C0880F2A95EAF7832B8083809184003F
:10137000909185008A589E4F90934F0280934E0221
:1013800080914E0290914F02909389008093880043
:1013900007C081E08093470210925102809352026D
:1013A000809152028230D1F580915102811111C099
:1013B000E0914502F0914602208181E090E00090AA
:1013C000440202C0880F991F0A94E2F7822B80839F
:1013D00025C0809151028F3008F1E0914502F091D3
:1013E0004602208181E090E00090440202C0880F14
:1013F000991F0A94E2F7809582238083109251020C
:1014000081E080935202E0914C02F0914D02E95F3D
:10141000FE4F808191810196918380838091520259
:101420008130A1F480915102811105C0B59A80915B
:101430006F00806209C080915102883338F01092A9
:10144000520280916F008D7F80936F00FF91EF912A
:10145000BF91AF919F918F914F913F912F910F909D
:101460000FBE0F901F90189590934D0280934C02E1
:101470002098E0914502F0914602208181E090E0C1
:101480000090440202C0880F991F0A94E2F78095E9
:101490008223808310928000E1E8F0E081E0808385
:1014A00010925202B59AAFE6B0E08C9180628C93B4
:1014B0008081887F8160808308951F93CF93DF931D
:1014C000EC01162F0E949F088093480280914802E9
:1014D0008150109249029FEF20914902281768F429
:1014E00020914902FE01E20FF11D208192272091F7
:1014F00049022F5F20934902EFCFFE01E80FF11D53
:101500009083F89480915202813079F48091510255
:10151000612F193308F068E3861738F010925202F1
:1015200080916F008D7F80936F007894809152023C
:10153000813039F490915102943108F06CC080E010
:101540006AC080915202811163C0F89480916F004B
:101550008F7D80936F00B59B07C080916F00806284
:1015600080936F00789454C0E0914502F091460258
:10157000208181E090E00090440202C0880F991F12
:101580000A94E2F7822B80838091840090918500F9
:101590008A589E4F90934F0280934E0280914E0244
:1015A00090914F0290938900809388007894D09313
:1015B0004B02C0934A02109249021092470288815E
:1015C0008093500283E08093520210925102B19AAC
:1015D00080916F00826080936F008091520283300F
:1015E000E1F380914702882369F0E0914C02F09189
:1015F0004D02ED5FFE4F8081918101969183808342
:1016000083E009C080915202823021F085E003C05E
:1016100082E001C084E0DF91CF911F910895CF93C4
:10162000DF9326E040E855E260E070E088E693E072
:101630000E94D20E69E08BE391E00E943A071F926C
:101640001F9287E291E09F938F93CEE7D2E0DF93E2
:10165000CF930E94BD0583E692E00E94ED048FE0E7
:1016600091E09F938F93DF93CF930E94BD058DB739
:101670009EB70A960FB6F8949EBF0FBE8DBF62E16B
:1016800073E083E592E0DF91CF910C94BA028EE78C
:1016900092E00E94BE0683E692E00E94FD048091E3
:1016A0007D02882391F088E091E09F938F938EE7ED
:1016B00092E09F938F930E94BD050E947605109241
:1016C0007D020F900F900F900F9008958EE792E09B
:1016D0000E94B6058BE792E00E94770583E692E0D0
:1016E0000E946D0460E483E592E00C94480283E577
:1016F00092E00C9455021092110381E080930F0345
:1017000010920E0361E082E10E94581161E083E1D2
:101710000E945811E9EBF0E080818E7F8083808108
:101720008D7F808380E28093B80085E48093BC0045
:101730000895ECEBF0E080818A7B808360E082E1B9
:101740000E94581160E083E10C9458114091C1024D
:10175000262F30E0240F311D21323105DCF4209199
:1017600011032430C9F4FC0180E090E0861758F49E
:101770003091C1022191DC01AE53BD4FA30FB11DC9
:101780002C930196F3CF8091C102680F6093C10240
:1017900080E0089581E0089582E008959093050324
:1017A000809304030895909307038093060308959C
:1017B000CF93DF9391E090930903882361F0C09168
:1017C000B800D091BA000E94990B0E947B0BD09375
:1017D000BA00C093B800DF91CF9108954F925F9205
:1017E0006F927F928F929F92AF92BF92CF92DF9231
:1017F000EF92FF920F931F93CF93DF93413208F044
:10180000C6C0122FF42ED72EE62ED82F0E946010BD
:101810004B015C01C0911103CC2311F180910A03AB
:1018200090910B03A0910C03B0910D03892B8A2B8F
:101830008B2B81F30E94601040900A0350900B03A1
:1018400060900C0370900D03DC01CB01881999099D
:10185000AA09BB09481659066A067B06D8F683C052
:1018600082E08093110300930F038FEF8093C002F7
:101870001092E302F092E2029E2DA4EEB2E0EE2D71
:10188000FD2D8E2F891B8F1518F481918D93F9CF23
:101890001092100390911003DD0FD92BD0931003F9
:1018A00080910E03813089F510920E030E94601022
:1018B0006B017C01809110038093BB0080910A032F
:1018C00090910B03A0910C03B0910D03892B8A2BEF
:1018D0008B2BA9F00E94601080900A0390900B035C
:1018E000A0900C03B0900D03DC01CB018C199D0975
:1018F000AE09BF0988169906AA06BB06A0F1809119
:10190000BC0083FDD7CF85EC01C085EE8093BC0081
:101910000E9460106B017C01112359F18091110329
:10192000823039F580910A0390910B03A0910C034A
:10193000B0910D03892B8A2B8B2B71F30E946010C1
:1019400080900A0390900B03A0900C03B0900D03BD
:10195000DC01CB018C199D09AE09BF0988169906D7
:10196000AA06BB06C8F6809108030E94D80BC5E002
:1019700013C08091C0028F3F79F08091C002803205
:1019800041F08091C002803331F0C4E005C0C1E075
:1019900003C0C2E001C0C3E08C2FDF91CF911F9143
:1019A0000F91FF90EF90DF90CF90BF90AF909F90FE
:1019B0008F907F906F905F904F90089580E090E0BF
:1019C00008958091460390E020914703821B91097E
:1019D00008959091470380914603981750F4E92F9A
:1019E000F0E0E85BFC4F208130E09F5F909347037D
:1019F00002C02FEF3FEFC9010895E09147038091A6
:101A00004603E81730F4F0E0E85BFC4F808190E09B
:101A100008958FEF9FEF08950895CF93DF93EC0122
:101A2000E0911E03F0911F033097F1F0909147036E
:101A3000809146039817C0F090E0292F30E02617D8
:101A4000370754F4DE01A20FB31F4C91D901A85BF4
:101A5000BC4F4C939F5FF1CF1092470360934603B6
:101A6000CB01DF91CF910994DF91CF910895E0915F
:101A70002003F0912103309729F010922403109253
:101A8000230309940895CF92DF92EF92FF920F9370
:101A90001F93CF93DF937C01CB018A012091220316
:101AA000222389F0EB016B01C40ED51ECC15DD0598
:101AB00069F06991D701ED91FC910190F081E02DE1
:101AC000C7010995F3CF642F0E94A60BC801DF91CF
:101AD000CF911F910F91FF90EF90DF90CF900895DD
:101AE000CF93DF931F92CDB7DEB769832091220396
:101AF0002223D1F020912303203240F021E030E076
:101B0000FC013383228380E090E015C080912403A0
:101B1000E82FF0E0EB5DFC4F998190838F5F80931D
:101B200024038093230305C061E0CE0101960E9447
:101B3000A60B81E090E00F90DF91CF910895FC011A
:101B40001382128288EE93E0A0E0B0E08483958354
:101B5000A683B78387E191E09183808308951092F3
:101B600047031092460310922403109223030E940D
:101B70007B0B87E39DE00E94D30B8DE09DE00C94EE
:101B8000CE0B81E0809322036093450310922403DF
:101B90001092230308950F93062F21E04091230311
:101BA00065E273E0809145030E94EE0B10922403DE
:101BB00010922303109222030F91089561E00C9478
:101BC000CB0D82E193E00C949F0DFC01918D228D51
:101BD000892F90E0805C9F4F821B91098F7399271A
:101BE0000895FC01918D828D981731F0828DE80F58
:101BF000F11D858D90E008958FEF9FEF0895FC0112
:101C0000918D828D981761F0828DDF01A80FB11D33
:101C10005D968C91928D9F5F9F73928F90E0089557
:101C20008FEF9FEF0895FC01538D448D252F30E0F9
:101C3000842F90E0821B930B541710F0CF960895D9
:101C4000019708958AE89FE0892B41F080E090E0B9
:101C5000892B21F00E948A0F81110DC080E090E055
:101C6000892B71F080E090E0892B51F00E940000F8
:101C7000811104C008950E940000F0CF0C94000070
:101C80000895FC01848DDF01A80FB11DA35ABF4F39
:101C90002C91848D90E001968F739927848FA6896B
:101CA000B7892C93A089B1898C91837080648C93BF
:101CB000938D848D981306C00288F389E02D80816E
:101CC0008F7D80830895EF92FF920F931F93CF93A0
:101CD000DF93EC0181E0888F9B8D8C8D981305C07C
:101CE000E889F989808185FD26C0F62E0B8D10E0EC
:101CF0000F5F1F4F0F731127E02E8C8DE8120CC061
:101D00000FB607FCFACFE889F989808185FFF5CF06
:101D1000CE010E94410EF1CF8B8DFE01E80FF11D27
:101D2000E35AFF4FF0829FB7F8940B8FEA89FB8943
:101D3000808180620AC09FB7F894EE89FF89608332
:101D4000E889F98980818370806480839FBF81E006
:101D500090E0DF91CF911F910F91FF90EF90089548
:101D6000CF93DF93EC01888D8823C9F0EA89FB8942
:101D7000808185FD05C0A889B9898C9186FD0FC039
:101D80000FB607FCF5CF808185FFF2CFA889B9890E
:101D90008C9185FFEDCFCE010E94410EE7CFDF9100
:101DA000CF910895CF92DF92EF92FF921F93CF933E
:101DB000DF93EC016A017B01122F60E874E88EE189
:101DC00090E0A70196010E948711DA01C9010197ED
:101DD000A109B109B695A795979587959C01E889C2
:101DE000F98982E08083211580E13807A8F0E8892D
:101DF000F989108260E472E48FE090E0A701960117
:101E00000E948711DA01C9010197A109B109B695AC
:101E1000A795979587959C01EC85FD853083EE8588
:101E2000FF852083188EEC89FD891083EA89FB8960
:101E3000808180618083EA89FB89808188608083DA
:101E4000EA89FB89808180688083EA89FB898081B7
:101E50008F7D8083DF91CF911F91FF90EF90DF9076
:101E6000CF9008951F920F920FB60F9211242F93C7
:101E70008F939F93EF93FF93E0917803F091790311
:101E80008081E0917E03F0917F0382FD12C09081FA
:101E9000809181038F5F8F7320918203821751F0AD
:101EA000E0918103F0E0E859FC4F958F8093810326
:101EB00001C08081FF91EF919F918F912F910F90A1
:101EC0000FBE0F901F9018951F920F920FB60F9292
:101ED00011242F933F934F935F936F937F938F932F
:101EE0009F93AF93BF93EF93FF9388E693E00E9495
:101EF000410EFF91EF91BF91AF919F918F917F9193
:101F00006F915F914F913F912F910F900FBE0F9066
:101F10001F90189588E693E00E94E50D21E0892B3B
:101F200009F420E0822F0895E8E6F3E0138212829C
:101F300088EE93E0A0E0B0E084839583A683B78326
:101F400089E291E09183808385EC90E09587848796
:101F500084EC90E09787868780EC90E0918B808B73
:101F600081EC90E0938B828B82EC90E0958B848B5C
:101F700086EC90E0978B868B118E128E138E148ECA
:101F8000089508950E948E100E94C10F0E940F0BA9
:101F9000C2E2DEE00E94470B2097E1F30E94220E8E
:101FA000F9CF0C94AF110C944712CF92DF92EF92BD
:101FB000FF920F931F93CF93DF936C017A018B01F4
:101FC000C0E0D0E0CE15DF0581F0D8016D918D0124
:101FD000D601ED91FC910190F081E02DC6010995AB
:101FE000892B11F02196EECF7E01C701DF91CF91B1
:101FF0001F910F91FF90EF90DF90CF9008956115A2
:10200000710579F0FB0101900020E9F73197AF01EC
:10201000461B570BDC01ED91FC910280F381E02D12
:10202000099480E090E008950C94FF0F1F920F92A6
:102030000FB60F9211242F933F938F939F93AF93DB
:10204000BF938091060490910704A0910804B09179
:1020500009043091050426E0230F2D3720F4029661
:10206000A11DB11D05C029E8230F0396A11DB11DB7
:10207000209305048093060490930704A09308041A
:10208000B093090480910A0490910B04A0910C0470
:10209000B0910D040196A11DB11D80930A04909387
:1020A0000B04A0930C04B0930D04BF91AF919F91CA
:1020B0008F913F912F910F900FBE0F901F90189509
:1020C0003FB7F89480910A0490910B04A0910C04FE
:1020D000B0910D0426B5A89B05C02F3F19F00196BD
:1020E000A11DB11D3FBFBA2FA92F982F8827820F9E
:1020F000911DA11DB11DBC01CD0143E0660F771FED
:10210000881F991F4A95D1F708958330910528F0CB
:10211000880F991F04970197F1F70895789484B573
:10212000826084BD84B5816084BD85B5826085BDD3
:1021300085B5816085BDEEE6F0E0808181608083B9
:10214000E1E8F0E01082808182608083808181609C
:102150008083E0E8F0E0808181608083E1EBF0E063
:10216000808184608083E0EBF0E080818160808307
:10217000E1E9F0E0808182608083808181608083FA
:10218000E0E9F0E0808181608083E1EAF0E0808135
:1021900082608083808181608083E0EAF0E08081DA
:1021A00081608083EAE7F0E08081846080838081C1
:1021B0008260808380818E7F80838081806880833D
:1021C0001092C100089590E0FC013197ED30F105C7
:1021D00090F5E65AFF4F0C94A911809180008F77FB
:1021E00003C0809180008F7D80938000089584B526
:1021F0008F7702C084B58F7D84BD08958091B00033
:102200008F7703C08091B0008F7D8093B0000895D8
:10221000809190008F7703C0809190008F7D809394
:10222000900008958091A0008F7703C08091A00056
:102230008F7D8093A0000895CF93DF9390E0FC0101
:10224000E65BFE4F2491FC01E25AFE4F8491882305
:1022500061F190E0880F991FFC01E458FE4FC59191
:10226000D491FC01EE58FE4FA591B491611109C0C3
:102270009FB7F8948881209582238883EC912E2340
:102280000BC0623061F49FB7F8948881322F30958B
:1022900083238883EC912E2B2C939FBF06C08FB78E
:1022A000F894E8812E2B28838FBFDF91CF9108957A
:1022B0001F93CF93DF93282F30E0F901EA5CFE4FA4
:1022C0008491F901E65BFE4FD491F901E25AFE4F89
:1022D000C491CC23C1F0162F81110E94E310EC2F82
:1022E000F0E0EE0FFF1FEE58FE4FA591B4919FB79F
:1022F000F894111104C08C91D095D82302C0EC91B0
:10230000DE2BDC939FBFDF91CF911F910895A1E257
:102310001A2EAA1BBB1BFD010DC0AA1FBB1FEE1F5F
:10232000FF1FA217B307E407F50720F0A21BB30BAA
:10233000E40BF50B661F771F881F991F1A9469F726
:1023400060957095809590959B01AC01BD01CF0182
:102350000895EE0FFF1F0590F491E02D09940F935F
:102360001F93CF93DF938230910510F482E090E0C9
:10237000E0911004F091110420E030E0A0E0B0E022
:10238000309719F140815181028113814817590713
:10239000C8F08417950769F4109731F012960C93E2
:1023A000129713961C9327C00093100410931104E6
:1023B00022C02115310519F04217530718F49A016C
:1023C000BD01EF01DF01F801DBCF21153105F9F087
:1023D000281B390B2430310580F48A819B816115DB
:1023E000710521F0FB019383828304C09093110453
:1023F00080931004FE01329644C0FE01E20FF31FE9
:102400008193919322503109398328833AC02091D6
:102410000E0430910F04232B41F4209102013091DE
:10242000030130930F0420930E042091000130919A
:1024300001012115310541F42DB73EB7409104014A
:1024400050910501241B350BE0910E04F0910F040F
:10245000E217F307A0F42E1B3F0B2817390778F07B
:10246000AC014E5F5F4F2417350748F04E0F5F1FDA
:1024700050930F0440930E048193919302C0E0E0C7
:10248000F0E0CF01DF91CF911F910F910895CF938D
:10249000DF93009709F481C0FC0132971382128206
:1024A000A0911004B0911104109781F42081318122
:1024B000820F931F20910E0430910F0428173907C3
:1024C00051F5F0930F04E0930E0467C0ED0120E096
:1024D00030E0CE17DF0740F44A815B819E01411551
:1024E0005105F1F0EA01F5CFD383C28340815181D8
:1024F000840F951FC817D90759F488819981840FD3
:10250000951F0296918380838A819B819383828326
:102510002115310529F4F0931104E09310043DC016
:10252000E901FB83EA8349915991C40FD51FEC1748
:10253000FD0761F480819181840F951F0296E90166
:1025400099838883828193819B838A83E0E0F0E092
:1025500012968D919C911397009719F0FD01DC0163
:10256000F7CF8D919C9111979D012E5F3F4F820F68
:10257000931F20910E0430910F042817390769F436
:10258000309729F4109211041092100402C01382A3
:102590001282B0930F04A0930E04DF91CF9108959F
:1025A000FC0188279927E89421912032E9F329300A
:1025B00010F02E30C8F32B3241F02D3239F46894EC
:1025C00004C00E940013820F911D219120532A30D4
:1025D000C0F31EF4909581959F4F08956817790771
:1025E00068F4FB01DC01E40FF51FA40FB51F02C066
:1025F00002900E9241505040D8F708950C94201547
:102600007AE0979F902D879F802D910D112408953A
:10261000AEE0B0E0EEE0F3E10C94DC158C01FA01E1
:102620008EE08C831A83098377FF02C060E070E834
:10263000CB0101979E838D83A901BF01CE01019635
:102640000E9434134D815E8157FD0AC02F81388569
:10265000421753070CF49A01F801E20FF31F10829E
:102660002E96E4E00C94F815ABE0B0E0EAE3F3E179
:102670000C94CE156C017B018A01FC011782168235
:10268000838181FFCCC1CE0101963C01F60193818B
:10269000F70193FD859193FF81917F01882309F4D0
:1026A000BAC1853239F493FD859193FF81917F0101
:1026B000853229F4B60190E00E943415E7CF912CC1
:1026C000212C312CFFE1F315D8F08B3279F038F45E
:1026D000803279F08332A1F4232D20611DC08D3228
:1026E00061F0803369F4232D216016C0832D826050
:1026F000382EE32DE4603E2E2AC0F32DF8601DC075
:1027000037FC2DC020ED280F2A3040F08E32B9F46E
:1027100036FC81C1232D2064322E19C036FE06C03E
:102720008AE0989E200D1124922E11C0EAE02E9E80
:10273000200D1124222EF32DF0623F2E08C08C367E
:1027400021F4832D8068382E02C0883641F4F701C9
:1027500093FD859193FF81917F018111B3CF982FD4
:102760009F7D9554933028F40C5F1F4F9FE399830E
:102770000DC0833631F0833771F0833509F059C0CD
:1027800021C0F801808189830E5F1F4F88248394C4
:10279000912C530113C02801F2E04F0E511CF80197
:1027A000A080B18036FE03C0692D70E002C06FEFDB
:1027B0007FEFC5010E9429154C018201F32DFF779F
:1027C0003F2E16C0280122E0420E511CF801A080C5
:1027D000B18036FE03C0692D70E002C06FEF7FEF5D
:1027E000C5010E9415154C01F32DF0683F2E8201A2
:1027F00033FC1BC0822D90E088169906B0F4B60118
:1028000080E290E00E9434152A94F4CFF50137FC61
:10281000859137FE81915F01B60190E00E943415E9
:1028200021102A9421E0821A91088114910471F7F1
:10283000E8C0843611F0893641F5F80137FE07C04B
:1028400060817181828193810C5F1F4F08C060811C
:102850007181072E000C880B990B0E5F1F4FF32D13
:10286000FF763F2E97FF09C09095809570956195F2
:102870007F4F8F4F9F4FF0683F2E2AE030E0A3013B
:102880000E947015882E861845C0853731F4232D97
:102890002F7EB22E2AE030E025C0932D997FB92EED
:1028A0008F36C1F018F4883579F0B5C0803719F04B
:1028B000883721F0B0C0E92FE061BE2EB4FE0DC014
:1028C000FB2DF460BF2E09C034FE0AC0292F2660FC
:1028D000B22E06C028E030E005C020E130E002C0A2
:1028E00020E132E0F801B7FE07C06081718182818A
:1028F00093810C5F1F4F06C06081718180E090E082
:102900000E5F1F4FA3010E947015882E8618FB2DA5
:10291000FF773F2E36FE0DC0232D2E7FA22E891469
:1029200058F434FE0BC032FC09C0832D8E7EA82ED5
:1029300005C0B82CA32C03C0B82C01C0B92CA4FE30
:102940000FC0FE01E80DF11D8081803321F49A2D26
:10295000997EA92E09C0A2FE06C0B394B39404C008
:102960008A2D867809F0B394A3FC11C0A0FE06C09E
:10297000B21488F4280C922C9B180EC0B21460F488
:10298000B60180E290E00E943415B394F7CFB21400
:1029900018F42B1802C0982C212CA4FE10C0B601EC
:1029A00080E390E00E943415A2FE17C0A1FC03C092
:1029B00088E790E002C088E590E0B6010CC08A2D5F
:1029C000867859F0A1FE02C08BE201C080E2A7FC2C
:1029D0008DE2B60190E00E943415891438F4B601F6
:1029E00080E390E00E9434159A94F7CF8A94F30123
:1029F000E80DF11D8081B60190E00E943415811030
:102A0000F5CF222009F442CEB60180E290E00E9488
:102A100034152A94F6CFF6018681978102C08FEF94
:102A20009FEF2B96E2E10C94EA15FC0105906150B2
:102A300070400110D8F7809590958E0F9F1F0895D4
:102A4000FB01DC0102C001900D9241505040D8F7CB
:102A50000895FC016150704001900110D8F78095F5
:102A600090958E0F9F1F08950F931F93CF93DF9321
:102A7000FB01238121FD03C08FEF9FEF2CC022FFBC
:102A800016C046815781248135814217530744F48B
:102A9000A081B1819D012F5F3F4F318320838C93B3
:102AA000268137812F5F3F4F3783268314C08B01E8
:102AB000EC01FB010084F185E02D0995892BE1F6FD
:102AC000D80116968D919C911797019617969C9315
:102AD0008E931697CE01DF91CF911F910F9108959C
:102AE000FA01AA27283051F1203181F1E8946F933F
:102AF0006E7F6E5F7F4F8F4F9F4FAF4FB1E03ED0E5
:102B0000B4E03CD0670F781F891F9A1FA11D680F82
:102B1000791F8A1F911DA11D6A0F711D811D911DB5
:102B2000A11D20D009F468943F912AE0269F11242A
:102B30003019305D3193DEF6CF010895462F47708E
:102B4000405D4193B3E00FD0C9F7F6CF462F4F70E9
:102B5000405D4A3318F0495D31FD4052419302D047
:102B6000A9F7EACFB4E0A6959795879577956795ED
:102B7000BA95C9F700976105710508959B01AC01ED
:102B80000A2E06945795479537952795BA95C9F714
:102B9000620F731F841F951FA01D08952F923F92EF
:102BA0004F925F926F927F928F929F92AF92BF925D
:102BB000CF92DF92EF92FF920F931F93CF93DF9309
:102BC000CDB7DEB7CA1BDB0B0FB6F894DEBF0FBE66
:102BD000CDBF09942A88398848885F846E847D84B3
:102BE0008C849B84AA84B984C884DF80EE80FD80B5
:102BF0000C811B81AA81B981CE0FD11D0FB6F8942B
:102C0000DEBF0FBECDBFED01089510E0C6ECD0E0F1
:102C100004C0FE010E94A9112196C73CD107C9F743
:042C2000F894FFCF56
:102C24000000120420006232206F6E006232206FB6
:102C340066660000000000700D430DDE0C0C0DE113
:102C44000CE90CFD0C00000000630ED50F130EB050
:082C54000EE50DFF0DF10D006E
:00000001FF
